{
  "contractName": "Hero",
  "abi": [
    {
      "inputs": [
        {
          "internalType": "string",
          "name": "_hero",
          "type": "string"
        }
      ],
      "stateMutability": "nonpayable",
      "type": "constructor"
    },
    {
      "inputs": [
        {
          "internalType": "string",
          "name": "_hero",
          "type": "string"
        }
      ],
      "name": "setHero",
      "outputs": [],
      "stateMutability": "nonpayable",
      "type": "function"
    },
    {
      "inputs": [],
      "name": "getHero",
      "outputs": [
        {
          "internalType": "string",
          "name": "",
          "type": "string"
        }
      ],
      "stateMutability": "view",
      "type": "function"
    }
  ],
  "bytecode": "0x608060405234801561001057600080fd5b506040516104f13803806104f18339818101604052602081101561003357600080fd5b810190808051604051939291908464010000000082111561005357600080fd5b90830190602082018581111561006857600080fd5b825164010000000081118282018810171561008257600080fd5b82525081516020918201929091019080838360005b838110156100af578181015183820152602001610097565b50505050905090810190601f1680156100dc5780820380516001836020036101000a031916815260200191505b506040525050600080546001600160a01b0319163317905550805161010890600190602084019061010f565b50506101b0565b828054600181600116156101000203166002900490600052602060002090601f016020900481019282610145576000855561018b565b82601f1061015e57805160ff191683800117855561018b565b8280016001018555821561018b579182015b8281111561018b578251825591602001919060010190610170565b5061019792915061019b565b5090565b5b80821115610197576000815560010161019c565b610332806101bf6000396000f3fe608060405234801561001057600080fd5b50600436106100365760003560e01c80631a126e141461003b578063581bee2f146100e3575b600080fd5b6100e16004803603602081101561005157600080fd5b81019060208101813564010000000081111561006c57600080fd5b82018360208201111561007e57600080fd5b803590602001918460018302840111640100000000831117156100a057600080fd5b91908080601f016020809104026020016040519081016040528093929190818152602001838380828437600092019190915250929550610160945050505050565b005b6100eb6101c6565b6040805160208082528351818301528351919283929083019185019080838360005b8381101561012557818101518382015260200161010d565b50505050905090810190601f1680156101525780820380516001836020036101000a031916815260200191505b509250505060405180910390f35b6000546001600160a01b031633146101af576040805162461bcd60e51b815260206004820152600d60248201526c2737ba103a34329037bbb732b960991b604482015290519081900360640190fd5b80516101c290600190602084019061025b565b5050565b60018054604080516020601f600260001961010087891615020190951694909404938401819004810282018101909252828152606093909290918301828280156102515780601f1061022657610100808354040283529160200191610251565b820191906000526020600020905b81548152906001019060200180831161023457829003601f168201915b5050505050905090565b828054600181600116156101000203166002900490600052602060002090601f01602090048101928261029157600085556102d7565b82601f106102aa57805160ff19168380011785556102d7565b828001600101855582156102d7579182015b828111156102d75782518255916020019190600101906102bc565b506102e39291506102e7565b5090565b5b808211156102e357600081556001016102e856fea2646970667358221220a49c7226d989d9bfde932e7c13b4a06f03f0ca54f8ce7de344eed0c492e6c2de64736f6c63430007060033",
  "immutableReferences": {},
  "source": "// SPDX-License-Identifier: MIT\r\npragma solidity >=0.4.22 <0.9.0;\r\n\r\ncontract Hero{\r\n    address owner;\r\n    string hero;\r\n    constructor(string memory _hero)\r\n    {\r\n        owner=msg.sender;\r\n        hero=_hero;\r\n    }\r\n    \r\n    function setHero(string memory _hero)public\r\n    {\r\n        require(msg.sender==owner,\"Not the owner\");\r\n        hero =_hero;\r\n    }\r\n    function getHero() public view returns(string memory)\r\n    {\r\n        return hero;\r\n    }\r\n    \r\n}",
  "sourcePath": "C:\\Users\\Hp\\Desktop\\Yeni klasör\\contracts\\Hero.sol",
  "compiler": {
    "name": "solc",
    "version": "0.7.6+commit.7338295f.Emscripten.clang"
  },
  "schemaVersion": "3.4.16",
  "updatedAt": "2024-05-15T14:42:27.970Z",
  "devdoc": {
    "kind": "dev",
    "methods": {},
    "version": 1
  },
  "userdoc": {
    "kind": "user",
    "methods": {},
    "version": 1
  }
}