{
  "contractName": "LandHelper",
  "abi": [
    {
      "inputs": [
        {
          "internalType": "string",
          "name": "_name",
          "type": "string"
        },
        {
          "internalType": "string",
          "name": "_symbol",
          "type": "string"
        }
      ],
      "stateMutability": "nonpayable",
      "type": "constructor"
    },
    {
      "anonymous": false,
      "inputs": [
        {
          "indexed": true,
          "internalType": "address",
          "name": "owner",
          "type": "address"
        },
        {
          "indexed": true,
          "internalType": "address",
          "name": "approved",
          "type": "address"
        },
        {
          "indexed": true,
          "internalType": "uint256",
          "name": "tokenId",
          "type": "uint256"
        }
      ],
      "name": "Approval",
      "type": "event"
    },
    {
      "anonymous": false,
      "inputs": [
        {
          "indexed": true,
          "internalType": "address",
          "name": "owner",
          "type": "address"
        },
        {
          "indexed": true,
          "internalType": "address",
          "name": "operator",
          "type": "address"
        },
        {
          "indexed": false,
          "internalType": "bool",
          "name": "approved",
          "type": "bool"
        }
      ],
      "name": "ApprovalForAll",
      "type": "event"
    },
    {
      "anonymous": false,
      "inputs": [
        {
          "indexed": true,
          "internalType": "address",
          "name": "from",
          "type": "address"
        },
        {
          "indexed": true,
          "internalType": "address",
          "name": "to",
          "type": "address"
        },
        {
          "indexed": true,
          "internalType": "uint256",
          "name": "tokenId",
          "type": "uint256"
        }
      ],
      "name": "Transfer",
      "type": "event"
    },
    {
      "inputs": [
        {
          "internalType": "address",
          "name": "to",
          "type": "address"
        },
        {
          "internalType": "uint256",
          "name": "tokenId",
          "type": "uint256"
        }
      ],
      "name": "approve",
      "outputs": [],
      "stateMutability": "nonpayable",
      "type": "function"
    },
    {
      "inputs": [
        {
          "internalType": "address",
          "name": "owner",
          "type": "address"
        }
      ],
      "name": "balanceOf",
      "outputs": [
        {
          "internalType": "uint256",
          "name": "",
          "type": "uint256"
        }
      ],
      "stateMutability": "view",
      "type": "function"
    },
    {
      "inputs": [],
      "name": "baseURI",
      "outputs": [
        {
          "internalType": "string",
          "name": "",
          "type": "string"
        }
      ],
      "stateMutability": "view",
      "type": "function"
    },
    {
      "inputs": [
        {
          "internalType": "uint256",
          "name": "tokenId",
          "type": "uint256"
        }
      ],
      "name": "getApproved",
      "outputs": [
        {
          "internalType": "address",
          "name": "",
          "type": "address"
        }
      ],
      "stateMutability": "view",
      "type": "function"
    },
    {
      "inputs": [
        {
          "internalType": "address",
          "name": "owner",
          "type": "address"
        },
        {
          "internalType": "address",
          "name": "operator",
          "type": "address"
        }
      ],
      "name": "isApprovedForAll",
      "outputs": [
        {
          "internalType": "bool",
          "name": "",
          "type": "bool"
        }
      ],
      "stateMutability": "view",
      "type": "function"
    },
    {
      "inputs": [],
      "name": "landContract",
      "outputs": [
        {
          "internalType": "contract Land",
          "name": "",
          "type": "address"
        }
      ],
      "stateMutability": "view",
      "type": "function"
    },
    {
      "inputs": [],
      "name": "name",
      "outputs": [
        {
          "internalType": "string",
          "name": "",
          "type": "string"
        }
      ],
      "stateMutability": "view",
      "type": "function"
    },
    {
      "inputs": [],
      "name": "owner",
      "outputs": [
        {
          "internalType": "address",
          "name": "",
          "type": "address"
        }
      ],
      "stateMutability": "view",
      "type": "function"
    },
    {
      "inputs": [
        {
          "internalType": "uint256",
          "name": "tokenId",
          "type": "uint256"
        }
      ],
      "name": "ownerOf",
      "outputs": [
        {
          "internalType": "address",
          "name": "",
          "type": "address"
        }
      ],
      "stateMutability": "view",
      "type": "function"
    },
    {
      "inputs": [
        {
          "internalType": "address",
          "name": "from",
          "type": "address"
        },
        {
          "internalType": "address",
          "name": "to",
          "type": "address"
        },
        {
          "internalType": "uint256",
          "name": "tokenId",
          "type": "uint256"
        }
      ],
      "name": "safeTransferFrom",
      "outputs": [],
      "stateMutability": "nonpayable",
      "type": "function"
    },
    {
      "inputs": [
        {
          "internalType": "address",
          "name": "from",
          "type": "address"
        },
        {
          "internalType": "address",
          "name": "to",
          "type": "address"
        },
        {
          "internalType": "uint256",
          "name": "tokenId",
          "type": "uint256"
        },
        {
          "internalType": "bytes",
          "name": "_data",
          "type": "bytes"
        }
      ],
      "name": "safeTransferFrom",
      "outputs": [],
      "stateMutability": "nonpayable",
      "type": "function"
    },
    {
      "inputs": [
        {
          "internalType": "address",
          "name": "operator",
          "type": "address"
        },
        {
          "internalType": "bool",
          "name": "approved",
          "type": "bool"
        }
      ],
      "name": "setApprovalForAll",
      "outputs": [],
      "stateMutability": "nonpayable",
      "type": "function"
    },
    {
      "inputs": [
        {
          "internalType": "bytes4",
          "name": "interfaceId",
          "type": "bytes4"
        }
      ],
      "name": "supportsInterface",
      "outputs": [
        {
          "internalType": "bool",
          "name": "",
          "type": "bool"
        }
      ],
      "stateMutability": "view",
      "type": "function"
    },
    {
      "inputs": [],
      "name": "symbol",
      "outputs": [
        {
          "internalType": "string",
          "name": "",
          "type": "string"
        }
      ],
      "stateMutability": "view",
      "type": "function"
    },
    {
      "inputs": [
        {
          "internalType": "uint256",
          "name": "index",
          "type": "uint256"
        }
      ],
      "name": "tokenByIndex",
      "outputs": [
        {
          "internalType": "uint256",
          "name": "",
          "type": "uint256"
        }
      ],
      "stateMutability": "view",
      "type": "function"
    },
    {
      "inputs": [],
      "name": "tokenIdCounter",
      "outputs": [
        {
          "internalType": "uint256",
          "name": "",
          "type": "uint256"
        }
      ],
      "stateMutability": "view",
      "type": "function"
    },
    {
      "inputs": [
        {
          "internalType": "address",
          "name": "owner",
          "type": "address"
        },
        {
          "internalType": "uint256",
          "name": "index",
          "type": "uint256"
        }
      ],
      "name": "tokenOfOwnerByIndex",
      "outputs": [
        {
          "internalType": "uint256",
          "name": "",
          "type": "uint256"
        }
      ],
      "stateMutability": "view",
      "type": "function"
    },
    {
      "inputs": [
        {
          "internalType": "uint256",
          "name": "tokenId",
          "type": "uint256"
        }
      ],
      "name": "tokenURI",
      "outputs": [
        {
          "internalType": "string",
          "name": "",
          "type": "string"
        }
      ],
      "stateMutability": "view",
      "type": "function"
    },
    {
      "inputs": [],
      "name": "totalSupply",
      "outputs": [
        {
          "internalType": "uint256",
          "name": "",
          "type": "uint256"
        }
      ],
      "stateMutability": "view",
      "type": "function"
    },
    {
      "inputs": [
        {
          "internalType": "address",
          "name": "from",
          "type": "address"
        },
        {
          "internalType": "address",
          "name": "to",
          "type": "address"
        },
        {
          "internalType": "uint256",
          "name": "tokenId",
          "type": "uint256"
        }
      ],
      "name": "transferFrom",
      "outputs": [],
      "stateMutability": "nonpayable",
      "type": "function"
    },
    {
      "inputs": [],
      "name": "getOwner",
      "outputs": [
        {
          "internalType": "address",
          "name": "",
          "type": "address"
        }
      ],
      "stateMutability": "nonpayable",
      "type": "function"
    },
    {
      "inputs": [
        {
          "internalType": "string",
          "name": "image",
          "type": "string"
        },
        {
          "internalType": "string",
          "name": "latitude",
          "type": "string"
        },
        {
          "internalType": "string",
          "name": "longitude",
          "type": "string"
        },
        {
          "internalType": "uint256",
          "name": "area",
          "type": "uint256"
        },
        {
          "internalType": "string",
          "name": "title",
          "type": "string"
        },
        {
          "internalType": "string",
          "name": "zoning",
          "type": "string"
        },
        {
          "internalType": "string[]",
          "name": "features",
          "type": "string[]"
        }
      ],
      "name": "createLandApplication",
      "outputs": [],
      "stateMutability": "nonpayable",
      "type": "function"
    },
    {
      "inputs": [
        {
          "internalType": "uint256",
          "name": "tokenId",
          "type": "uint256"
        }
      ],
      "name": "setMintable",
      "outputs": [],
      "stateMutability": "nonpayable",
      "type": "function"
    },
    {
      "inputs": [
        {
          "internalType": "uint256",
          "name": "tokenId",
          "type": "uint256"
        }
      ],
      "name": "setDeclined",
      "outputs": [],
      "stateMutability": "nonpayable",
      "type": "function"
    },
    {
      "inputs": [
        {
          "internalType": "uint256",
          "name": "tokenId",
          "type": "uint256"
        }
      ],
      "name": "mintcustomNFT",
      "outputs": [],
      "stateMutability": "nonpayable",
      "type": "function"
    },
    {
      "inputs": [
        {
          "internalType": "uint256",
          "name": "tokenId",
          "type": "uint256"
        }
      ],
      "name": "getLandInfo",
      "outputs": [
        {
          "components": [
            {
              "internalType": "string",
              "name": "image",
              "type": "string"
            },
            {
              "internalType": "address",
              "name": "currentOwner",
              "type": "address"
            },
            {
              "internalType": "address",
              "name": "firstOwner",
              "type": "address"
            },
            {
              "internalType": "string",
              "name": "latitude",
              "type": "string"
            },
            {
              "internalType": "string",
              "name": "longitude",
              "type": "string"
            },
            {
              "internalType": "uint256",
              "name": "area",
              "type": "uint256"
            },
            {
              "internalType": "string",
              "name": "title",
              "type": "string"
            },
            {
              "internalType": "string",
              "name": "zoning",
              "type": "string"
            },
            {
              "internalType": "string[]",
              "name": "features",
              "type": "string[]"
            },
            {
              "internalType": "address",
              "name": "to",
              "type": "address"
            },
            {
              "internalType": "bool",
              "name": "isMintable",
              "type": "bool"
            },
            {
              "internalType": "bool",
              "name": "isDeclined",
              "type": "bool"
            },
            {
              "internalType": "bool",
              "name": "isMinted",
              "type": "bool"
            }
          ],
          "internalType": "struct LandHelper.LandInfo",
          "name": "",
          "type": "tuple"
        }
      ],
      "stateMutability": "view",
      "type": "function"
    },
    {
      "inputs": [],
      "name": "getNonMintableLands",
      "outputs": [
        {
          "internalType": "uint256[]",
          "name": "",
          "type": "uint256[]"
        },
        {
          "components": [
            {
              "internalType": "string",
              "name": "image",
              "type": "string"
            },
            {
              "internalType": "address",
              "name": "currentOwner",
              "type": "address"
            },
            {
              "internalType": "address",
              "name": "firstOwner",
              "type": "address"
            },
            {
              "internalType": "string",
              "name": "latitude",
              "type": "string"
            },
            {
              "internalType": "string",
              "name": "longitude",
              "type": "string"
            },
            {
              "internalType": "uint256",
              "name": "area",
              "type": "uint256"
            },
            {
              "internalType": "string",
              "name": "title",
              "type": "string"
            },
            {
              "internalType": "string",
              "name": "zoning",
              "type": "string"
            },
            {
              "internalType": "string[]",
              "name": "features",
              "type": "string[]"
            },
            {
              "internalType": "address",
              "name": "to",
              "type": "address"
            },
            {
              "internalType": "bool",
              "name": "isMintable",
              "type": "bool"
            },
            {
              "internalType": "bool",
              "name": "isDeclined",
              "type": "bool"
            },
            {
              "internalType": "bool",
              "name": "isMinted",
              "type": "bool"
            }
          ],
          "internalType": "struct LandHelper.LandInfo[]",
          "name": "",
          "type": "tuple[]"
        }
      ],
      "stateMutability": "view",
      "type": "function"
    },
    {
      "inputs": [],
      "name": "getChildAddress",
      "outputs": [
        {
          "internalType": "address",
          "name": "",
          "type": "address"
        }
      ],
      "stateMutability": "view",
      "type": "function"
    },
    {
      "inputs": [
        {
          "internalType": "address",
          "name": "addr",
          "type": "address"
        }
      ],
      "name": "getApplicationsByAddress",
      "outputs": [
        {
          "internalType": "uint256[]",
          "name": "",
          "type": "uint256[]"
        },
        {
          "components": [
            {
              "internalType": "string",
              "name": "image",
              "type": "string"
            },
            {
              "internalType": "address",
              "name": "currentOwner",
              "type": "address"
            },
            {
              "internalType": "address",
              "name": "firstOwner",
              "type": "address"
            },
            {
              "internalType": "string",
              "name": "latitude",
              "type": "string"
            },
            {
              "internalType": "string",
              "name": "longitude",
              "type": "string"
            },
            {
              "internalType": "uint256",
              "name": "area",
              "type": "uint256"
            },
            {
              "internalType": "string",
              "name": "title",
              "type": "string"
            },
            {
              "internalType": "string",
              "name": "zoning",
              "type": "string"
            },
            {
              "internalType": "string[]",
              "name": "features",
              "type": "string[]"
            },
            {
              "internalType": "address",
              "name": "to",
              "type": "address"
            },
            {
              "internalType": "bool",
              "name": "isMintable",
              "type": "bool"
            },
            {
              "internalType": "bool",
              "name": "isDeclined",
              "type": "bool"
            },
            {
              "internalType": "bool",
              "name": "isMinted",
              "type": "bool"
            }
          ],
          "internalType": "struct LandHelper.LandInfo[]",
          "name": "",
          "type": "tuple[]"
        }
      ],
      "stateMutability": "view",
      "type": "function"
    }
  ],
  "bytecode": "0x60806040523480156200001157600080fd5b5060405162007d3638038062007d368339810160408190526200003491620002e1565b8181620000486301ffc9a760e01b62000129565b81516200005d906006906020850190620001ae565b50805162000073906007906020840190620001ae565b50620000866380ac58cd60e01b62000129565b62000098635b5e139f60e01b62000129565b620000aa63780e9d6360e01b62000129565b50506001600c55600a80546001600160a01b0319163317905560405182908290620000d59062000243565b620000e292919062000376565b604051809103906000f080158015620000ff573d6000803e3d6000fd5b50600b80546001600160a01b0319166001600160a01b039290921691909117905550620003d29050565b6001600160e01b0319808216141562000189576040805162461bcd60e51b815260206004820152601c60248201527f4552433136353a20696e76616c696420696e7465726661636520696400000000604482015290519081900360640190fd5b6001600160e01b0319166000908152602081905260409020805460ff19166001179055565b828054600181600116156101000203166002900490600052602060002090601f016020900481019282620001e6576000855562000231565b82601f106200020157805160ff191683800117855562000231565b8280016001018555821562000231579182015b828111156200023157825182559160200191906001019062000214565b506200023f92915062000251565b5090565b613d4b8062003feb83390190565b5b808211156200023f576000815560010162000252565b600082601f83011262000279578081fd5b81516001600160401b03808211156200028e57fe5b604051601f8301601f191681016020018281118282101715620002ad57fe5b604052828152848301602001861015620002c5578384fd5b620002d88360208301602088016200039f565b95945050505050565b60008060408385031215620002f4578182fd5b82516001600160401b03808211156200030b578384fd5b620003198683870162000268565b935060208501519150808211156200032f578283fd5b506200033e8582860162000268565b9150509250929050565b60008151808452620003628160208601602086016200039f565b601f01601f19169290920160200192915050565b6000604082526200038b604083018562000348565b8281036020840152620002d8818562000348565b60005b83811015620003bc578181015183820152602001620003a2565b83811115620003cc576000848401525b50505050565b613c0980620003e26000396000f3fe608060405234801561001057600080fd5b50600436106101cf5760003560e01c80636767f61e1161010457806395d89b41116100a2578063b88d4fde11610071578063b88d4fde146103a6578063bcb1c3a9146103b9578063c87b56dd146103c1578063e985e9c5146103d4576101cf565b806395d89b41146103705780639834b2b51461037857806398bdf6f51461038b578063a22cb46514610393576101cf565b806370a08231116100de57806370a082311461033a578063893d20e81461034d5780638da5cb5b1461035557806391e4bac81461035d576101cf565b80636767f61e1461030a5780636c0360eb146103125780636f6f9bef1461031a576101cf565b80632bbc2a4e1161017157806342842e0e1161014b57806342842e0e146102be5780634f6ccce7146102d15780635a256885146102e45780636352211e146102f7576101cf565b80632bbc2a4e146102775780632c8c58a1146102985780632f745c59146102ab576101cf565b8063081812fc116101ad578063081812fc14610227578063095ea7b31461023a57806318160ddd1461024f57806323b872dd14610264576101cf565b806301ffc9a7146101d457806303d07340146101fd57806306fdde0314610212575b600080fd5b6101e76101e23660046131f8565b6103e7565b6040516101f4919061367f565b60405180910390f35b61020561040a565b6040516101f491906135d6565b61021a610419565b6040516101f4919061368a565b610205610235366004613319565b6104af565b61024d6102483660046131cf565b610511565b005b6102576105e7565b6040516101f49190613967565b61024d6102723660046130e1565b6105f8565b61028a610285366004613095565b61064f565b6040516101f49291906135ea565b61024d6102a6366004613220565b610c02565b6102576102b93660046131cf565b610dec565b61024d6102cc3660046130e1565b610e17565b6102576102df366004613319565b610e32565b61024d6102f2366004613319565b610e48565b610205610305366004613319565b610eea565b61028a610f12565b61021a611508565b61032d610328366004613319565b611569565b6040516101f49190613954565b610257610348366004613095565b6119e3565b610205611a4b565b610205611a5a565b61024d61036b366004613319565b611a69565b61021a611b3b565b61024d610386366004613319565b611b9c565b610257611e24565b61024d6103a1366004613195565b611e2a565b61024d6103b436600461311c565b611f2f565b610205611f8d565b61021a6103cf366004613319565b611f9c565b6101e76103e23660046130af565b61221d565b6001600160e01b0319811660009081526020819052604090205460ff165b919050565b600b546001600160a01b031681565b60068054604080516020601f60026000196101006001881615020190951694909404938401819004810282018101909252828152606093909290918301828280156104a55780601f1061047a576101008083540402835291602001916104a5565b820191906000526020600020905b81548152906001019060200180831161048857829003601f168201915b5050505050905090565b60006104ba8261224b565b6104f55760405162461bcd60e51b815260040180806020018281038252602c815260200180613afe602c913960400191505060405180910390fd5b506000908152600460205260409020546001600160a01b031690565b600061051c82610eea565b9050806001600160a01b0316836001600160a01b0316141561056f5760405162461bcd60e51b8152600401808060200182810382526021815260200180613b826021913960400191505060405180910390fd5b806001600160a01b0316610581612258565b6001600160a01b0316148061059d575061059d816103e2612258565b6105d85760405162461bcd60e51b8152600401808060200182810382526038815260200180613a516038913960400191505060405180910390fd5b6105e2838361225c565b505050565b60006105f360026122ca565b905090565b610609610603612258565b826122d5565b6106445760405162461bcd60e51b8152600401808060200182810382526031815260200180613ba36031913960400191505060405180910390fd5b6105e2838383612379565b6060806000805b600c54811015610694576000818152600d60205260409020600901546001600160a01b038681169116141561068c576001909101905b600101610656565b5060008160010167ffffffffffffffff811180156106b157600080fd5b506040519080825280602002602001820160405280156106db578160200160208202803683370190505b50905060008260010167ffffffffffffffff811180156106fa57600080fd5b5060405190808252806020026020018201604052801561073457816020015b610721612cd0565b8152602001906001900390816107195790505b509050600160005b600c54811015610bf5576000818152600d60205260409020600901546001600160a01b0389811691161415610bed578084838151811061077857fe5b6020908102919091018101919091526000828152600d82526040908190208151815460026001821615610100026000190190911604601f810185900490940281016101c09081019093526101a0810184815290939192849284918401828280156108235780601f106107f857610100808354040283529160200191610823565b820191906000526020600020905b81548152906001019060200180831161080657829003601f168201915b50505091835250506001828101546001600160a01b0390811660208085019190915260028086015490921660408086019190915260038601805482516101009682161596909602600019011693909304601f8101839004830285018301909152808452606090940193908301828280156108de5780601f106108b3576101008083540402835291602001916108de565b820191906000526020600020905b8154815290600101906020018083116108c157829003601f168201915b505050918352505060048201805460408051602060026001851615610100026000190190941693909304601f81018490048402820184019092528181529382019392918301828280156109725780601f1061094757610100808354040283529160200191610972565b820191906000526020600020905b81548152906001019060200180831161095557829003601f168201915b5050509183525050600582015460208083019190915260068301805460408051601f60026000196101006001871615020190941693909304928301859004850281018501825282815294019392830182828015610a105780601f106109e557610100808354040283529160200191610a10565b820191906000526020600020905b8154815290600101906020018083116109f357829003601f168201915b505050918352505060078201805460408051602060026001851615610100026000190190941693909304601f8101849004840282018401909252818152938201939291830182828015610aa45780601f10610a7957610100808354040283529160200191610aa4565b820191906000526020600020905b815481529060010190602001808311610a8757829003601f168201915b5050505050815260200160088201805480602002602001604051908101604052809291908181526020016000905b82821015610b7d5760008481526020908190208301805460408051601f6002600019610100600187161502019094169390930492830185900485028101850190915281815292830182828015610b695780601f10610b3e57610100808354040283529160200191610b69565b820191906000526020600020905b815481529060010190602001808311610b4c57829003601f168201915b505050505081526020019060010190610ad2565b50505090825250600991909101546001600160a01b038116602083015260ff600160a01b8204811615156040840152600160a81b8204811615156060840152600160b01b9091041615156080909101528351849084908110610bdb57fe5b60209081029190910101526001909101905b60010161073c565b5091945092505050915091565b604080516101a081018252888152336020808301829052828401829052606083018a90526080830189905260a0830188905260c0830187905260e0830186905261010083018590526101208301919091526000610140830181905261016083018190526101808301819052600c548152600d8252929092208151805192938493610c8f9284920190612d59565b506020828101516001830180546001600160a01b039283166001600160a01b031991821617909155604085015160028501805491909316911617905560608301518051610ce29260038501920190612d59565b5060808201518051610cfe916004840191602090910190612d59565b5060a0820151600582015560c08201518051610d24916006840191602090910190612d59565b5060e08201518051610d40916007840191602090910190612d59565b506101008201518051610d5d916008840191602090910190612de5565b5061012082015160099091018054610140840151610160850151610180909501511515600160b01b0260ff60b01b19951515600160a81b0260ff60a81b19921515600160a01b0260ff60a01b196001600160a01b039097166001600160a01b03199095169490941795909516929092171692909217929092161790555050600c80546001019055505050505050565b6001600160a01b0382166000908152600160205260408120610e0e90836124c5565b90505b92915050565b6105e283838360405180602001604052806000815250611f2f565b600080610e406002846124d1565b509392505050565b600a546001600160a01b03163314610e7b5760405162461bcd60e51b8152600401610e7290613724565b60405180910390fd5b600a546001600160a01b03163314610ea55760405162461bcd60e51b8152600401610e72906136d4565b600c548110610ec65760405162461bcd60e51b8152600401610e7290613815565b6000908152600d60205260409020600901805460ff60a81b1916600160a81b179055565b6000610e1182604051806060016040528060298152602001613ab360299139600291906124ed565b6060806000805b600c54811015610f79576000818152600d6020526040902060090154600160a01b900460ff16158015610f6557506000818152600d6020526040902060090154600160a81b900460ff16155b15610f71576001909101905b600101610f19565b5060008160010167ffffffffffffffff81118015610f9657600080fd5b50604051908082528060200260200182016040528015610fc0578160200160208202803683370190505b50905060008260010167ffffffffffffffff81118015610fdf57600080fd5b5060405190808252806020026020018201604052801561101957816020015b611006612cd0565b815260200190600190039081610ffe5790505b509050600160005b600c548110156114fc576000818152600d6020526040902060090154600160a01b900460ff1615801561106d57506000818152600d6020526040902060090154600160a81b900460ff16155b156114f4578084838151811061107f57fe5b6020908102919091018101919091526000828152600d82526040908190208151815460026001821615610100026000190190911604601f810185900490940281016101c09081019093526101a08101848152909391928492849184018282801561112a5780601f106110ff5761010080835404028352916020019161112a565b820191906000526020600020905b81548152906001019060200180831161110d57829003601f168201915b50505091835250506001828101546001600160a01b0390811660208085019190915260028086015490921660408086019190915260038601805482516101009682161596909602600019011693909304601f8101839004830285018301909152808452606090940193908301828280156111e55780601f106111ba576101008083540402835291602001916111e5565b820191906000526020600020905b8154815290600101906020018083116111c857829003601f168201915b505050918352505060048201805460408051602060026001851615610100026000190190941693909304601f81018490048402820184019092528181529382019392918301828280156112795780601f1061124e57610100808354040283529160200191611279565b820191906000526020600020905b81548152906001019060200180831161125c57829003601f168201915b5050509183525050600582015460208083019190915260068301805460408051601f600260001961010060018716150201909416939093049283018590048502810185018252828152940193928301828280156113175780601f106112ec57610100808354040283529160200191611317565b820191906000526020600020905b8154815290600101906020018083116112fa57829003601f168201915b505050918352505060078201805460408051602060026001851615610100026000190190941693909304601f81018490048402820184019092528181529382019392918301828280156113ab5780601f10611380576101008083540402835291602001916113ab565b820191906000526020600020905b81548152906001019060200180831161138e57829003601f168201915b5050505050815260200160088201805480602002602001604051908101604052809291908181526020016000905b828210156114845760008481526020908190208301805460408051601f60026000196101006001871615020190941693909304928301859004850281018501909152818152928301828280156114705780601f1061144557610100808354040283529160200191611470565b820191906000526020600020905b81548152906001019060200180831161145357829003601f168201915b5050505050815260200190600101906113d9565b50505090825250600991909101546001600160a01b038116602083015260ff600160a01b8204811615156040840152600160a81b8204811615156060840152600160b01b90910416151560809091015283518490849081106114e257fe5b60209081029190910101526001909101905b600101611021565b50919450925050509091565b60098054604080516020601f60026000196101006001881615020190951694909404938401819004810282018101909252828152606093909290918301828280156104a55780601f1061047a576101008083540402835291602001916104a5565b611571612cd0565b600c5482106115925760405162461bcd60e51b8152600401610e7290613815565b6000828152600d60209081526040918290208251815460026001821615610100026000190190911604601f810184900490930281016101c09081019094526101a081018381529093919284928491908401828280156116325780601f1061160757610100808354040283529160200191611632565b820191906000526020600020905b81548152906001019060200180831161161557829003601f168201915b50505091835250506001828101546001600160a01b0390811660208085019190915260028086015490921660408086019190915260038601805482516101009682161596909602600019011693909304601f8101839004830285018301909152808452606090940193908301828280156116ed5780601f106116c2576101008083540402835291602001916116ed565b820191906000526020600020905b8154815290600101906020018083116116d057829003601f168201915b505050918352505060048201805460408051602060026001851615610100026000190190941693909304601f81018490048402820184019092528181529382019392918301828280156117815780601f1061175657610100808354040283529160200191611781565b820191906000526020600020905b81548152906001019060200180831161176457829003601f168201915b5050509183525050600582015460208083019190915260068301805460408051601f6002600019610100600187161502019094169390930492830185900485028101850182528281529401939283018282801561181f5780601f106117f45761010080835404028352916020019161181f565b820191906000526020600020905b81548152906001019060200180831161180257829003601f168201915b505050918352505060078201805460408051602060026001851615610100026000190190941693909304601f81018490048402820184019092528181529382019392918301828280156118b35780601f10611888576101008083540402835291602001916118b3565b820191906000526020600020905b81548152906001019060200180831161189657829003601f168201915b5050505050815260200160088201805480602002602001604051908101604052809291908181526020016000905b8282101561198c5760008481526020908190208301805460408051601f60026000196101006001871615020190941693909304928301859004850281018501909152818152928301828280156119785780601f1061194d57610100808354040283529160200191611978565b820191906000526020600020905b81548152906001019060200180831161195b57829003601f168201915b5050505050815260200190600101906118e1565b50505090825250600991909101546001600160a01b038116602083015260ff600160a01b8204811615156040840152600160a81b8204811615156060840152600160b01b9091041615156080909101529050919050565b60006001600160a01b038216611a2a5760405162461bcd60e51b815260040180806020018281038252602a815260200180613a89602a913960400191505060405180910390fd5b6001600160a01b0382166000908152600160205260409020610e11906122ca565b600a546001600160a01b031690565b600a546001600160a01b031681565b600a546001600160a01b03163314611a935760405162461bcd60e51b8152600401610e7290613724565b600a546001600160a01b03163314611abd5760405162461bcd60e51b8152600401610e72906136d4565b600c548110611ade5760405162461bcd60e51b8152600401610e7290613815565b6000818152600d6020526040902060090154600160a81b900460ff1615611b175760405162461bcd60e51b8152600401610e729061376e565b6000908152600d60205260409020600901805460ff60a01b1916600160a01b179055565b60078054604080516020601f60026000196101006001881615020190951694909404938401819004810282018101909252828152606093909290918301828280156104a55780601f1061047a576101008083540402835291602001916104a5565b6000818152600d6020526040902060090154600160a01b900460ff161515600114611bd95760405162461bcd60e51b8152600401610e729061384c565b6000818152600d6020526040902060090154600160b01b900460ff1615611c125760405162461bcd60e51b8152600401610e729061369d565b6000818152600d60205260409020600901546001600160a01b03163314611c4b5760405162461bcd60e51b8152600401610e72906137cb565b6000818152600d602052604081208054611c7991839160026000196001831615610100020190911604612e3e565b50600d6000838152602001908152602001600020600301816001019080546001816001161561010002031660029004611cb3929190612e3e565b506000828152600d602052604090206004018054611ce591600280850192600019610100600183161502011604612e3e565b506000828152600d60205260409020600581015460038301556006018054611d2491600484019160026000196101006001841615020190911604612e3e565b506000828152600d602052604090206007018054611d5991600584019160026000196101006001841615020190911604612e3e565b506000828152600d602052604090206008018054611d7b916006840191612ec1565b506000828152600d60205260409081902060028101546007840180546001600160a01b03199081166001600160a01b039384161790915560019092015460088501805490931690821617909155600b549151634b0af79f60e11b8152911690639615ef3e90611dee908490600401613877565b600060405180830381600087803b158015611e0857600080fd5b505af1158015611e1c573d6000803e3d6000fd5b505050505050565b600c5481565b611e32612258565b6001600160a01b0316826001600160a01b03161415611e98576040805162461bcd60e51b815260206004820152601960248201527f4552433732313a20617070726f766520746f2063616c6c657200000000000000604482015290519081900360640190fd5b8060056000611ea5612258565b6001600160a01b03908116825260208083019390935260409182016000908120918716808252919093529120805460ff191692151592909217909155611ee9612258565b6001600160a01b03167f17307eab39ab6107e8899845ad3d59bd9653f200f220920489ca2b5937696c318360405180821515815260200191505060405180910390a35050565b611f40611f3a612258565b836122d5565b611f7b5760405162461bcd60e51b8152600401808060200182810382526031815260200180613ba36031913960400191505060405180910390fd5b611f8784848484612504565b50505050565b600b546001600160a01b031690565b6060611fa78261224b565b611fe25760405162461bcd60e51b815260040180806020018281038252602f815260200180613b53602f913960400191505060405180910390fd5b60008281526008602090815260408083208054825160026001831615610100026000190190921691909104601f8101859004850282018501909352828152929091908301828280156120755780601f1061204a57610100808354040283529160200191612075565b820191906000526020600020905b81548152906001019060200180831161205857829003601f168201915b505050505090506000612086611508565b905080516000141561209a57509050610405565b81511561215b5780826040516020018083805190602001908083835b602083106120d55780518252601f1990920191602091820191016120b6565b51815160209384036101000a600019018019909216911617905285519190930192850191508083835b6020831061211d5780518252601f1990920191602091820191016120fe565b6001836020036101000a0380198251168184511680821785525050505050509050019250505060405160208183030381529060405292505050610405565b8061216585612556565b6040516020018083805190602001908083835b602083106121975780518252601f199092019160209182019101612178565b51815160209384036101000a600019018019909216911617905285519190930192850191508083835b602083106121df5780518252601f1990920191602091820191016121c0565b6001836020036101000a0380198251168184511680821785525050505050509050019250505060405160208183030381529060405292505050919050565b6001600160a01b03918216600090815260056020908152604080832093909416825291909152205460ff1690565b6000610e11600283612631565b3390565b600081815260046020526040902080546001600160a01b0319166001600160a01b038416908117909155819061229182610eea565b6001600160a01b03167f8c5be1e5ebec7d5bd14f71427d1e84f3dd0314c0f7b2291e5b200ac8c7c3b92560405160405180910390a45050565b6000610e118261263d565b60006122e08261224b565b61231b5760405162461bcd60e51b815260040180806020018281038252602c815260200180613a25602c913960400191505060405180910390fd5b600061232683610eea565b9050806001600160a01b0316846001600160a01b031614806123615750836001600160a01b0316612356846104af565b6001600160a01b0316145b806123715750612371818561221d565b949350505050565b826001600160a01b031661238c82610eea565b6001600160a01b0316146123d15760405162461bcd60e51b8152600401808060200182810382526029815260200180613b2a6029913960400191505060405180910390fd5b6001600160a01b0382166124165760405162461bcd60e51b8152600401808060200182810382526024815260200180613a016024913960400191505060405180910390fd5b6124218383836105e2565b61242c60008261225c565b6001600160a01b038316600090815260016020526040902061244e9082612641565b506001600160a01b0382166000908152600160205260409020612471908261264d565b5061247e60028284612659565b5080826001600160a01b0316846001600160a01b03167fddf252ad1be2c89b69c2b068fc378daa952ba7f163c4a11628f55a4df523b3ef60405160405180910390a4505050565b6000610e0e838361266f565b60008080806124e086866126d3565b9097909650945050505050565b60006124fa84848461274e565b90505b9392505050565b61250f848484612379565b61251b84848484612818565b611f875760405162461bcd60e51b81526004018080602001828103825260328152602001806139cf6032913960400191505060405180910390fd5b60608161257b57506040805180820190915260018152600360fc1b6020820152610405565b8160005b811561259357600101600a8204915061257f565b60008167ffffffffffffffff811180156125ac57600080fd5b506040519080825280601f01601f1916602001820160405280156125d7576020820181803683370190505b50859350905060001982015b831561262857600a840660300160f81b8282806001900393508151811061260657fe5b60200101906001600160f81b031916908160001a905350600a840493506125e3565b50949350505050565b6000610e0e8383612980565b5490565b6000610e0e8383612998565b6000610e0e8383612a5e565b60006124fa84846001600160a01b038516612aa8565b815460009082106126b15760405162461bcd60e51b81526004018080602001828103825260228152602001806139ad6022913960400191505060405180910390fd5b8260000182815481106126c057fe5b9060005260206000200154905092915050565b8154600090819083106127175760405162461bcd60e51b8152600401808060200182810382526022815260200180613adc6022913960400191505060405180910390fd5b600084600001848154811061272857fe5b906000526020600020906002020190508060000154816001015492509250509250929050565b600082815260018401602052604081205482816127e95760405162461bcd60e51b81526004018080602001828103825283818151815260200191508051906020019080838360005b838110156127ae578181015183820152602001612796565b50505050905090810190601f1680156127db5780820380516001836020036101000a031916815260200191505b509250505060405180910390fd5b508460000160018203815481106127fc57fe5b9060005260206000209060020201600101549150509392505050565b600061282c846001600160a01b0316612b3f565b61283857506001612371565b6000612946630a85bd0160e11b61284d612258565b88878760405160240180856001600160a01b03168152602001846001600160a01b0316815260200183815260200180602001828103825283818151815260200191508051906020019080838360005b838110156128b457818101518382015260200161289c565b50505050905090810190601f1680156128e15780820380516001836020036101000a031916815260200191505b5095505050505050604051602081830303815290604052906001600160e01b0319166020820180516001600160e01b0383818316178352505050506040518060600160405280603281526020016139cf603291396001600160a01b0388169190612b45565b9050600081806020019051602081101561295f57600080fd5b50516001600160e01b031916630a85bd0160e11b1492505050949350505050565b60009081526001919091016020526040902054151590565b60008181526001830160205260408120548015612a5457835460001980830191908101906000908790839081106129cb57fe5b90600052602060002001549050808760000184815481106129e857fe5b600091825260208083209091019290925582815260018981019092526040902090840190558654879080612a1857fe5b60019003818190600052602060002001600090559055866001016000878152602001908152602001600020600090556001945050505050610e11565b6000915050610e11565b6000612a6a8383612980565b612aa057508154600181810184556000848152602080822090930184905584548482528286019093526040902091909155610e11565b506000610e11565b600082815260018401602052604081205480612b0d5750506040805180820182528381526020808201848152865460018181018955600089815284812095516002909302909501918255915190820155865486845281880190925292909120556124fd565b82856000016001830381548110612b2057fe5b90600052602060002090600202016001018190555060009150506124fd565b3b151590565b60606124fa848460008585612b5985612b3f565b612baa576040805162461bcd60e51b815260206004820152601d60248201527f416464726573733a2063616c6c20746f206e6f6e2d636f6e7472616374000000604482015290519081900360640190fd5b600080866001600160a01b031685876040518082805190602001908083835b60208310612be85780518252601f199092019160209182019101612bc9565b6001836020036101000a03801982511681845116808217855250505050505090500191505060006040518083038185875af1925050503d8060008114612c4a576040519150601f19603f3d011682016040523d82523d6000602084013e612c4f565b606091505b5091509150612c5f828286612c6a565b979650505050505050565b60608315612c795750816124fd565b825115612c895782518084602001fd5b60405162461bcd60e51b81526020600482018181528451602484015284518593919283926044019190850190808383600083156127ae578181015183820152602001612796565b604051806101a001604052806060815260200160006001600160a01b0316815260200160006001600160a01b0316815260200160608152602001606081526020016000815260200160608152602001606081526020016060815260200160006001600160a01b031681526020016000151581526020016000151581526020016000151581525090565b828054600181600116156101000203166002900490600052602060002090601f016020900481019282612d8f5760008555612dd5565b82601f10612da857805160ff1916838001178555612dd5565b82800160010185558215612dd5579182015b82811115612dd5578251825591602001919060010190612dba565b50612de1929150612f1f565b5090565b828054828255906000526020600020908101928215612e32579160200282015b82811115612e325782518051612e22918491602090910190612d59565b5091602001919060010190612e05565b50612de1929150612f34565b828054600181600116156101000203166002900490600052602060002090601f016020900481019282612e745760008555612dd5565b82601f10612e855780548555612dd5565b82800160010185558215612dd557600052602060002091601f016020900482015b82811115612dd5578254825591600101919060010190612ea6565b828054828255906000526020600020908101928215612e325760005260206000209182015b82811115612e325782829080546001816001161561010002031660029004612f0f929190612e3e565b5091600101919060010190612ee6565b5b80821115612de15760008155600101612f20565b80821115612de1576000612f488282612f51565b50600101612f34565b50805460018160011615610100020316600290046000825580601f10612f775750612f95565b601f016020900490600052602060002090810190612f959190612f1f565b50565b600067ffffffffffffffff831115612fac57fe5b612fbf601f8401601f1916602001613970565b9050828152838383011115612fd357600080fd5b828260208301376000602084830101529392505050565b80356001600160a01b038116811461040557600080fd5b600082601f830112613011578081fd5b8135602067ffffffffffffffff82111561302757fe5b6130348182840201613970565b82815281810190858301855b8581101561306957613057898684358b0101613076565b84529284019290840190600101613040565b5090979650505050505050565b600082601f830112613086578081fd5b610e0e83833560208501612f98565b6000602082840312156130a6578081fd5b610e0e82612fea565b600080604083850312156130c1578081fd5b6130ca83612fea565b91506130d860208401612fea565b90509250929050565b6000806000606084860312156130f5578081fd5b6130fe84612fea565b925061310c60208501612fea565b9150604084013590509250925092565b60008060008060808587031215613131578081fd5b61313a85612fea565b935061314860208601612fea565b925060408501359150606085013567ffffffffffffffff81111561316a578182fd5b8501601f8101871361317a578182fd5b61318987823560208401612f98565b91505092959194509250565b600080604083850312156131a7578182fd5b6131b083612fea565b9150602083013580151581146131c4578182fd5b809150509250929050565b600080604083850312156131e1578182fd5b6131ea83612fea565b946020939093013593505050565b600060208284031215613209578081fd5b81356001600160e01b0319811681146124fd578182fd5b600080600080600080600060e0888a03121561323a578283fd5b873567ffffffffffffffff80821115613251578485fd5b61325d8b838c01613076565b985060208a0135915080821115613272578485fd5b61327e8b838c01613076565b975060408a0135915080821115613293578485fd5b61329f8b838c01613076565b965060608a0135955060808a01359150808211156132bb578485fd5b6132c78b838c01613076565b945060a08a01359150808211156132dc578384fd5b6132e88b838c01613076565b935060c08a01359150808211156132fd578283fd5b5061330a8a828b01613001565b91505092959891949750929550565b60006020828403121561332a578081fd5b5035919050565b6001600160a01b03169052565b6000815180845260208085018081965082840281019150828601855b858110156133845782840389526133728483516133df565b9885019893509084019060010161335a565b5091979650505050505050565b6000815480845260208085018081965082840281019150858552828520855b858110156133845782840389526133c7848361342a565b988501989350600191820191016133b0565b15159052565b60008151808452815b81811015613404576020818501810151868301820152016133e8565b818111156134155782602083870101525b50601f01601f19169290920160200192915050565b600081546001808216600081146134485760018114613466576134a4565b60028304607f16865260ff19831660208701526040860193506134a4565b6002830480875261347686613994565b60005b8281101561349a5781546020828b0101528482019150602081019050613479565b8801602001955050505b50505092915050565b60006101a082518185526134c3828601826133df565b91505060208301516134d86020860182613331565b5060408301516134eb6040860182613331565b506060830151848203606086015261350382826133df565b9150506080830151848203608086015261351d82826133df565b91505060a083015160a085015260c083015184820360c086015261354182826133df565b91505060e083015184820360e086015261355b82826133df565b9150506101008084015185830382870152613576838261333e565b925050506101208084015161358d82870182613331565b5050610140808401516135a2828701826133d9565b5050610160808401516135b7828701826133d9565b5050610180808401516135cc828701826133d9565b5090949350505050565b6001600160a01b0391909116815260200190565b604080825283519082018190526000906020906060840190828701845b8281101561362357815184529284019290840190600101613607565b5050508381038285015284518082528282019080840283018401878501865b8381101561367057601f1986840301855261365e8383516134ad565b94870194925090860190600101613642565b50909998505050505050505050565b901515815260200190565b600060208252610e0e60208301846133df565b6020808252601c908201527f596f7520616c7265616479206d696e7465642074686973204e46542e00000000604082015260600190565b60208082526030908201527f4f6e6c792074686520636f6e7472616374206f776e65722063616e207365742060408201526f36b4b73a30b136329039ba30ba3ab99760811b606082015260800190565b6020808252602a908201527f4f6e6c7920636f6e7472616374206f776e65722063616e2063616c6c207468696040820152693990333ab731ba34b7b760b11b606082015260800190565b6020808252603e908201527f54686973206170706c69636174696f6e20697320616c7265616479206465636c60408201527f696e65642e20506c65617365206372656174652061206e6577206f6e652e0000606082015260800190565b6020808252602a908201527f596f75206d75737420626520746865206f776e6572206f662074686973206170604082015269383634b1b0ba34b7b71760b11b606082015260800190565b60208082526018908201527f546f6b656e20494420646f6573206e6f742065786973742e0000000000000000604082015260600190565b60208082526011908201527026bab9ba1031329036b4b73a30b136329760791b604082015260600190565b60006020825261012080602084015261389461014084018561342a565b601f19808583030160408601526138ae826001880161342a565b9150808583030160608601526138c7826002880161342a565b915060038601546080860152808583030160a08601526138ea826004880161342a565b9150808583030160c0860152613903826005880161342a565b9150808583030160e08601525061391d8160068701613391565b905061392c60078601546139a0565b61393a610100860182613331565b5061394860088601546139a0565b61262883860182613331565b600060208252610e0e60208301846134ad565b90815260200190565b60405181810167ffffffffffffffff8111828210171561398c57fe5b604052919050565b60009081526020902090565b6001600160a01b03169056fe456e756d657261626c655365743a20696e646578206f7574206f6620626f756e64734552433732313a207472616e7366657220746f206e6f6e20455243373231526563656976657220696d706c656d656e7465724552433732313a207472616e7366657220746f20746865207a65726f20616464726573734552433732313a206f70657261746f7220717565727920666f72206e6f6e6578697374656e7420746f6b656e4552433732313a20617070726f76652063616c6c6572206973206e6f74206f776e6572206e6f7220617070726f76656420666f7220616c6c4552433732313a2062616c616e636520717565727920666f7220746865207a65726f20616464726573734552433732313a206f776e657220717565727920666f72206e6f6e6578697374656e7420746f6b656e456e756d657261626c654d61703a20696e646578206f7574206f6620626f756e64734552433732313a20617070726f76656420717565727920666f72206e6f6e6578697374656e7420746f6b656e4552433732313a207472616e73666572206f6620746f6b656e2074686174206973206e6f74206f776e4552433732314d657461646174613a2055524920717565727920666f72206e6f6e6578697374656e7420746f6b656e4552433732313a20617070726f76616c20746f2063757272656e74206f776e65724552433732313a207472616e736665722063616c6c6572206973206e6f74206f776e6572206e6f7220617070726f766564a2646970667358221220b38410204b5bbafbaa565a4b343baede72037284227ad9c01e64bf9dcfc62cf664736f6c6343000706003360806040523480156200001157600080fd5b5060405162003d4b38038062003d4b833981016040819052620000349162000297565b8181620000486301ffc9a760e01b620000cb565b81516200005d90600690602085019062000150565b5080516200007390600790602084019062000150565b50620000866380ac58cd60e01b620000cb565b62000098635b5e139f60e01b620000cb565b620000aa63780e9d6360e01b620000cb565b50506001600b555050600a80546001600160a01b03191633179055620002fe565b6001600160e01b031980821614156200012b576040805162461bcd60e51b815260206004820152601c60248201527f4552433136353a20696e76616c696420696e7465726661636520696400000000604482015290519081900360640190fd5b6001600160e01b0319166000908152602081905260409020805460ff19166001179055565b828054600181600116156101000203166002900490600052602060002090601f016020900481019282620001885760008555620001d3565b82601f10620001a357805160ff1916838001178555620001d3565b82800160010185558215620001d3579182015b82811115620001d3578251825591602001919060010190620001b6565b50620001e1929150620001e5565b5090565b5b80821115620001e15760008155600101620001e6565b600082601f8301126200020d578081fd5b81516001600160401b03808211156200022257fe5b6040516020601f8401601f19168201810183811183821017156200024257fe5b604052838252858401810187101562000259578485fd5b8492505b838310156200027c57858301810151828401820152918201916200025d565b838311156200028d57848185840101525b5095945050505050565b60008060408385031215620002aa578182fd5b82516001600160401b0380821115620002c1578384fd5b620002cf86838701620001fc565b93506020850151915080821115620002e5578283fd5b50620002f485828601620001fc565b9150509250929050565b613a3d806200030e6000396000f3fe608060405234801561001057600080fd5b50600436106101c45760003560e01c80637fb93133116100f9578063a22cb46511610097578063c87b56dd11610071578063c87b56dd146103a8578063e069c411146103bb578063e985e9c5146103ce578063eba83052146103e1576101c4565b8063a22cb4651461036f578063b88d4fde14610382578063ba87d08114610395576101c4565b80639615ef3e116100d35780639615ef3e1461032e57806398bdf6f5146103415780639da2f386146103495780639f7e84611461035c576101c4565b80637fb931331461030b5780638da5cb5b1461031e57806395d89b4114610326576101c4565b806323b872dd116101665780634f6ccce7116101405780634f6ccce7146102ca5780636352211e146102dd5780636c0360eb146102f057806370a08231146102f8576101c4565b806323b872dd146102915780632f745c59146102a457806342842e0e146102b7576101c4565b806306fdde03116101a257806306fdde0314610232578063081812fc14610247578063095ea7b31461026757806318160ddd1461027c576101c4565b806301063346146101c957806301ffc9a7146101f2578063044ee75e14610212575b600080fd5b6101dc6101d7366004613257565b6103f4565b6040516101e991906136ab565b60405180910390f35b6102056102003660046131fc565b61083c565b6040516101e99190613594565b610225610220366004613099565b61085b565b6040516101e99190613534565b61023a610d76565b6040516101e9919061359f565b61025a610255366004613257565b610e0c565b6040516101e99190613520565b61027a6102753660046131d3565b610e6e565b005b610284610f44565b6040516101e9919061379b565b61027a61029f3660046130e5565b610f55565b6102846102b23660046131d3565b610fac565b61027a6102c53660046130e5565b610fd7565b6102846102d8366004613257565b610ff2565b61025a6102eb366004613257565b611008565b61023a611030565b610284610306366004613099565b611091565b610284610319366004613257565b6110f9565b61025a611158565b61023a611167565b61027a61033c366004613224565b6111c8565b61028461130b565b61027a610357366004613257565b611311565b61025a61036a366004613257565b61138a565b61027a61037d366004613199565b6113ba565b61027a610390366004613120565b6114bf565b61025a6103a3366004613257565b61151d565b61023a6103b6366004613257565b611563565b6102256103c93660046132b4565b6117e4565b6102056103dc3660046130b3565b611cc8565b61027a6103ef36600461326f565b611cf6565b6103fc612c8f565b61040582611e8e565b61042a5760405162461bcd60e51b8152600401610421906135b2565b60405180910390fd5b6000828152600c60209081526040918290208251815460026001821615610100026000190190911604601f8101849004909302810161014090810190945261012081018381529093919284928491908401828280156104ca5780601f1061049f576101008083540402835291602001916104ca565b820191906000526020600020905b8154815290600101906020018083116104ad57829003601f168201915b50505050508152602001600182018054600181600116156101000203166002900480601f01602080910402602001604051908101604052809291908181526020018280546001816001161561010002031660029004801561056c5780601f106105415761010080835404028352916020019161056c565b820191906000526020600020905b81548152906001019060200180831161054f57829003601f168201915b5050509183525050600282810180546040805160206001841615610100026000190190931694909404601f810183900483028501830190915280845293810193908301828280156105fe5780601f106105d3576101008083540402835291602001916105fe565b820191906000526020600020905b8154815290600101906020018083116105e157829003601f168201915b5050509183525050600382015460208083019190915260048301805460408051601f6002600019610100600187161502019094169390930492830185900485028101850182528281529401939283018282801561069c5780601f106106715761010080835404028352916020019161069c565b820191906000526020600020905b81548152906001019060200180831161067f57829003601f168201915b505050918352505060058201805460408051602060026001851615610100026000190190941693909304601f81018490048402820184019092528181529382019392918301828280156107305780601f1061070557610100808354040283529160200191610730565b820191906000526020600020905b81548152906001019060200180831161071357829003601f168201915b5050505050815260200160068201805480602002602001604051908101604052809291908181526020016000905b828210156108095760008481526020908190208301805460408051601f60026000196101006001871615020190941693909304928301859004850281018501909152818152928301828280156107f55780601f106107ca576101008083540402835291602001916107f5565b820191906000526020600020905b8154815290600101906020018083116107d857829003601f168201915b50505050508152602001906001019061075e565b5050509082525060078201546001600160a01b03908116602083015260089092015490911660409091015290505b919050565b6001600160e01b03191660009081526020819052604090205460ff1690565b6001600160a01b0381166000908152600d602090815260408083208054825181850281018501909352808352606094938301828280156108ba57602002820191906000526020600020905b8154815260200190600101908083116108a6575b5050505050905060008151905060008167ffffffffffffffff811180156108e057600080fd5b5060405190808252806020026020018201604052801561091a57816020015b610907612c8f565b8152602001906001900390816108ff5790505b50905060005b82811015610d6d57600c600085838151811061093857fe5b60209081029190910181015182528181019290925260409081016000208151815460026001821615610100026000190190911604601f81018590049094028101610140908101909352610120810184815290939192849284918401828280156109e25780601f106109b7576101008083540402835291602001916109e2565b820191906000526020600020905b8154815290600101906020018083116109c557829003601f168201915b50505050508152602001600182018054600181600116156101000203166002900480601f016020809104026020016040519081016040528092919081815260200182805460018160011615610100020316600290048015610a845780601f10610a5957610100808354040283529160200191610a84565b820191906000526020600020905b815481529060010190602001808311610a6757829003601f168201915b5050509183525050600282810180546040805160206001841615610100026000190190931694909404601f81018390048302850183019091528084529381019390830182828015610b165780601f10610aeb57610100808354040283529160200191610b16565b820191906000526020600020905b815481529060010190602001808311610af957829003601f168201915b5050509183525050600382015460208083019190915260048301805460408051601f60026000196101006001871615020190941693909304928301859004850281018501825282815294019392830182828015610bb45780601f10610b8957610100808354040283529160200191610bb4565b820191906000526020600020905b815481529060010190602001808311610b9757829003601f168201915b505050918352505060058201805460408051602060026001851615610100026000190190941693909304601f8101849004840282018401909252818152938201939291830182828015610c485780601f10610c1d57610100808354040283529160200191610c48565b820191906000526020600020905b815481529060010190602001808311610c2b57829003601f168201915b5050505050815260200160068201805480602002602001604051908101604052809291908181526020016000905b82821015610d215760008481526020908190208301805460408051601f6002600019610100600187161502019094169390930492830185900485028101850190915281815292830182828015610d0d5780601f10610ce257610100808354040283529160200191610d0d565b820191906000526020600020905b815481529060010190602001808311610cf057829003601f168201915b505050505081526020019060010190610c76565b5050509082525060078201546001600160a01b0390811660208301526008909201549091166040909101528251839083908110610d5a57fe5b6020908102919091010152600101610920565b50949350505050565b60068054604080516020601f6002600019610100600188161502019095169490940493840181900481028201810190925282815260609390929091830182828015610e025780601f10610dd757610100808354040283529160200191610e02565b820191906000526020600020905b815481529060010190602001808311610de557829003601f168201915b5050505050905090565b6000610e1782611e8e565b610e525760405162461bcd60e51b815260040180806020018281038252602c815260200180613932602c913960400191505060405180910390fd5b506000908152600460205260409020546001600160a01b031690565b6000610e7982611008565b9050806001600160a01b0316836001600160a01b03161415610ecc5760405162461bcd60e51b81526004018080602001828103825260218152602001806139b66021913960400191505060405180910390fd5b806001600160a01b0316610ede611e9b565b6001600160a01b03161480610efa5750610efa816103dc611e9b565b610f355760405162461bcd60e51b81526004018080602001828103825260388152602001806138856038913960400191505060405180910390fd5b610f3f8383611e9f565b505050565b6000610f506002611f0d565b905090565b610f66610f60611e9b565b82611f18565b610fa15760405162461bcd60e51b81526004018080602001828103825260318152602001806139d76031913960400191505060405180910390fd5b610f3f838383611fbc565b6001600160a01b0382166000908152600160205260408120610fce9083612108565b90505b92915050565b610f3f838383604051806020016040528060008152506114bf565b600080611000600284612114565b509392505050565b6000610fd1826040518060600160405280602981526020016138e76029913960029190612130565b60098054604080516020601f6002600019610100600188161502019095169490940493840181900481028201810190925282815260609390929091830182828015610e025780601f10610dd757610100808354040283529160200191610e02565b60006001600160a01b0382166110d85760405162461bcd60e51b815260040180806020018281038252602a8152602001806138bd602a913960400191505060405180910390fd5b6001600160a01b0382166000908152600160205260409020610fd190611f0d565b600080821161111a5760405162461bcd60e51b8152600401610421906135e9565b600b546000190180611130576000915050610837565b600083828161113b57fe5b04905083828161114757fe5b0615611151576001015b9392505050565b600a546001600160a01b031681565b60078054604080516020601f6002600019610100600188161502019095169490940493840181900481028201810190925282815260609390929091830182828015610e025780601f10610dd757610100808354040283529160200191610e02565b600a546001600160a01b031633146111f25760405162461bcd60e51b81526004016104219061362c565b600b546000908152600c6020908152604090912082518051849361121a928492910190612ced565b5060208281015180516112339260018501920190612ced565b506040820151805161124f916002840191602090910190612ced565b506060820151600382015560808201518051611275916004840191602090910190612ced565b5060a08201518051611291916005840191602090910190612ced565b5060c082015180516112ad916006840191602090910190612d79565b5060e0828101516007830180546001600160a01b03199081166001600160a01b03938416179091556101009094015160089093018054909416921691909117909155810151600b546112ff919061213d565b50600b80546001019055565b600b5481565b600a546001600160a01b0316331461133b5760405162461bcd60e51b81526004016104219061362c565b61134481611e8e565b6113605760405162461bcd60e51b8152600401610421906135b2565b600061136b82611008565b600a549091506113869082906001600160a01b031684611fbc565b5050565b600061139582611e8e565b6113b15760405162461bcd60e51b8152600401610421906135b2565b610fd182611008565b6113c2611e9b565b6001600160a01b0316826001600160a01b03161415611428576040805162461bcd60e51b815260206004820152601960248201527f4552433732313a20617070726f766520746f2063616c6c657200000000000000604482015290519081900360640190fd5b8060056000611435611e9b565b6001600160a01b03908116825260208083019390935260409182016000908120918716808252919093529120805460ff191692151592909217909155611479611e9b565b6001600160a01b03167f17307eab39ab6107e8899845ad3d59bd9653f200f220920489ca2b5937696c318360405180821515815260200191505060405180910390a35050565b6114d06114ca611e9b565b83611f18565b61150b5760405162461bcd60e51b81526004018080602001828103825260318152602001806139d76031913960400191505060405180910390fd5b61151784848484612157565b50505050565b600061152882611e8e565b6115445760405162461bcd60e51b8152600401610421906135b2565b506000908152600c60205260409020600801546001600160a01b031690565b606061156e82611e8e565b6115a95760405162461bcd60e51b815260040180806020018281038252602f815260200180613987602f913960400191505060405180910390fd5b60008281526008602090815260408083208054825160026001831615610100026000190190921691909104601f81018590048502820185019093528281529290919083018282801561163c5780601f106116115761010080835404028352916020019161163c565b820191906000526020600020905b81548152906001019060200180831161161f57829003601f168201915b50505050509050600061164d611030565b905080516000141561166157509050610837565b8151156117225780826040516020018083805190602001908083835b6020831061169c5780518252601f19909201916020918201910161167d565b51815160209384036101000a600019018019909216911617905285519190930192850191508083835b602083106116e45780518252601f1990920191602091820191016116c5565b6001836020036101000a0380198251168184511680821785525050505050509050019250505060405160208183030381529060405292505050610837565b8061172c856121a9565b6040516020018083805190602001908083835b6020831061175e5780518252601f19909201916020918201910161173f565b51815160209384036101000a600019018019909216911617905285519190930192850191508083835b602083106117a65780518252601f199092019160209182019101611787565b6001836020036101000a0380198251168184511680821785525050505050509050019250505060405160208183030381529060405292505050919050565b600b546060906000199081019084018302600101818111156118185760405162461bcd60e51b815260040161042190613676565b600019818501018281111561182a5750815b60018282030160008167ffffffffffffffff8111801561184957600080fd5b5060405190808252806020026020018201604052801561188357816020015b611870612c8f565b8152602001906001900390816118685790505b509050835b838111611cbc576000818152600c60209081526040918290208251815460026001821615610100026000190190911604601f81018490049093028101610140908101909452610120810183815290939192849284919084018282801561192f5780601f106119045761010080835404028352916020019161192f565b820191906000526020600020905b81548152906001019060200180831161191257829003601f168201915b50505050508152602001600182018054600181600116156101000203166002900480601f0160208091040260200160405190810160405280929190818152602001828054600181600116156101000203166002900480156119d15780601f106119a6576101008083540402835291602001916119d1565b820191906000526020600020905b8154815290600101906020018083116119b457829003601f168201915b5050509183525050600282810180546040805160206001841615610100026000190190931694909404601f81018390048302850183019091528084529381019390830182828015611a635780601f10611a3857610100808354040283529160200191611a63565b820191906000526020600020905b815481529060010190602001808311611a4657829003601f168201915b5050509183525050600382015460208083019190915260048301805460408051601f60026000196101006001871615020190941693909304928301859004850281018501825282815294019392830182828015611b015780601f10611ad657610100808354040283529160200191611b01565b820191906000526020600020905b815481529060010190602001808311611ae457829003601f168201915b505050918352505060058201805460408051602060026001851615610100026000190190941693909304601f8101849004840282018401909252818152938201939291830182828015611b955780601f10611b6a57610100808354040283529160200191611b95565b820191906000526020600020905b815481529060010190602001808311611b7857829003601f168201915b5050505050815260200160068201805480602002602001604051908101604052809291908181526020016000905b82821015611c6e5760008481526020908190208301805460408051601f6002600019610100600187161502019094169390930492830185900485028101850190915281815292830182828015611c5a5780601f10611c2f57610100808354040283529160200191611c5a565b820191906000526020600020905b815481529060010190602001808311611c3d57829003601f168201915b505050505081526020019060010190611bc3565b5050509082525060078201546001600160a01b03908116602083015260089092015490911660409091015282518390878403908110611ca957fe5b6020908102919091010152600101611888565b50979650505050505050565b6001600160a01b03918216600090815260056020908152604080832093909416825291909152205460ff1690565b600a546001600160a01b03163314611d205760405162461bcd60e51b81526004016104219061362c565b611d2982611e8e565b611d455760405162461bcd60e51b8152600401610421906135b2565b6000828152600c60209081526040909120825180519192611d6b92849290910190612ced565b506020808301518051611d849260018501920190612ced565b5060408201518051611da0916002840191602090910190612ced565b506060820151600382015560808201518051611dc6916004840191602090910190612ced565b5060a08201518051611de2916005840191602090910190612ced565b50611df1600682016000612dd2565b60005b8260c0015151811015611e5057816006018360c001518281518110611e1557fe5b60209081029190910181015182546001810184556000938452928290208151611e479491909101929190910190612ced565b50600101611df4565b50827f83c4675c9e9677d1598fc4ca4ea8c97ffa9dc22cae5fea522ff97594c86bcb7c82604051611e8191906136be565b60405180910390a2505050565b6000610fd160028361227b565b3390565b600081815260046020526040902080546001600160a01b0319166001600160a01b0384169081179091558190611ed482611008565b6001600160a01b03167f8c5be1e5ebec7d5bd14f71427d1e84f3dd0314c0f7b2291e5b200ac8c7c3b92560405160405180910390a45050565b6000610fd182612287565b6000611f2382611e8e565b611f5e5760405162461bcd60e51b815260040180806020018281038252602c815260200180613859602c913960400191505060405180910390fd5b6000611f6983611008565b9050806001600160a01b0316846001600160a01b03161480611fa45750836001600160a01b0316611f9984610e0c565b6001600160a01b0316145b80611fb45750611fb48185611cc8565b949350505050565b826001600160a01b0316611fcf82611008565b6001600160a01b0316146120145760405162461bcd60e51b815260040180806020018281038252602981526020018061395e6029913960400191505060405180910390fd5b6001600160a01b0382166120595760405162461bcd60e51b81526004018080602001828103825260248152602001806138356024913960400191505060405180910390fd5b61206483838361228b565b61206f600082611e9f565b6001600160a01b03831660009081526001602052604090206120919082612370565b506001600160a01b03821660009081526001602052604090206120b4908261237c565b506120c160028284612388565b5080826001600160a01b0316846001600160a01b03167fddf252ad1be2c89b69c2b068fc378daa952ba7f163c4a11628f55a4df523b3ef60405160405180910390a4505050565b6000610fce838361239e565b60008080806121238686612402565b9097909650945050505050565b6000611fb484848461247d565b611386828260405180602001604052806000815250612547565b612162848484611fbc565b61216e84848484612599565b6115175760405162461bcd60e51b81526004018080602001828103825260328152602001806138036032913960400191505060405180910390fd5b6060816121ce57506040805180820190915260018152600360fc1b6020820152610837565b8160005b81156121e657600101600a820491506121d2565b60008167ffffffffffffffff811180156121ff57600080fd5b506040519080825280601f01601f19166020018201604052801561222a576020820181803683370190505b50859350905060001982015b8315610d6d57600a840660300160f81b8282806001900393508151811061225957fe5b60200101906001600160f81b031916908160001a905350600a84049350612236565b6000610fce8383612701565b5490565b6001600160a01b038316158015906122ab57506001600160a01b03821615155b156122bb576122bb838383610f3f565b6001600160a01b0383166122f9576001600160a01b0382166000908152600d6020908152604082208054600181018255908352912001819055610f3f565b6001600160a01b038216612316576123118382612719565b610f3f565b6123208382612719565b6001600160a01b0382166000818152600d60209081526040808320805460018101825590845282842001859055848352600c909152902060080180546001600160a01b0319169091179055505050565b6000610fce8383612829565b6000610fce83836128ef565b6000611fb484846001600160a01b038516612939565b815460009082106123e05760405162461bcd60e51b81526004018080602001828103825260228152602001806137e16022913960400191505060405180910390fd5b8260000182815481106123ef57fe5b9060005260206000200154905092915050565b8154600090819083106124465760405162461bcd60e51b81526004018080602001828103825260228152602001806139106022913960400191505060405180910390fd5b600084600001848154811061245757fe5b906000526020600020906002020190508060000154816001015492509250509250929050565b600082815260018401602052604081205482816125185760405162461bcd60e51b81526004018080602001828103825283818151815260200191508051906020019080838360005b838110156124dd5781810151838201526020016124c5565b50505050905090810190601f16801561250a5780820380516001836020036101000a031916815260200191505b509250505060405180910390fd5b5084600001600182038154811061252b57fe5b9060005260206000209060020201600101549150509392505050565b61255183836129d0565b61255e6000848484612599565b610f3f5760405162461bcd60e51b81526004018080602001828103825260328152602001806138036032913960400191505060405180910390fd5b60006125ad846001600160a01b0316612afe565b6125b957506001611fb4565b60006126c7630a85bd0160e11b6125ce611e9b565b88878760405160240180856001600160a01b03168152602001846001600160a01b0316815260200183815260200180602001828103825283818151815260200191508051906020019080838360005b8381101561263557818101518382015260200161261d565b50505050905090810190601f1680156126625780820380516001836020036101000a031916815260200191505b5095505050505050604051602081830303815290604052906001600160e01b0319166020820180516001600160e01b038381831617835250505050604051806060016040528060328152602001613803603291396001600160a01b0388169190612b04565b905060008180602001905160208110156126e057600080fd5b50516001600160e01b031916630a85bd0160e11b1492505050949350505050565b60009081526001919091016020526040902054151590565b6001600160a01b0382166000908152600d6020526040812054905b81811015611517576001600160a01b0384166000908152600d6020526040902080548491908390811061276357fe5b90600052602060002001541415612821576001600160a01b0384166000908152600d602052604090208054600019840190811061279c57fe5b9060005260206000200154600d6000866001600160a01b03166001600160a01b0316815260200190815260200160002082815481106127d757fe5b60009182526020808320909101929092556001600160a01b0386168152600d9091526040902080548061280657fe5b60019003818190600052602060002001600090559055611517565b600101612734565b600081815260018301602052604081205480156128e5578354600019808301919081019060009087908390811061285c57fe5b906000526020600020015490508087600001848154811061287957fe5b6000918252602080832090910192909255828152600189810190925260409020908401905586548790806128a957fe5b60019003818190600052602060002001600090559055866001016000878152602001908152602001600020600090556001945050505050610fd1565b6000915050610fd1565b60006128fb8383612701565b61293157508154600181810184556000848152602080822090930184905584548482528286019093526040902091909155610fd1565b506000610fd1565b60008281526001840160205260408120548061299e575050604080518082018252838152602080820184815286546001818101895560008981528481209551600290930290950191825591519082015586548684528188019092529290912055611151565b828560000160018303815481106129b157fe5b9060005260206000209060020201600101819055506000915050611151565b6001600160a01b038216612a2b576040805162461bcd60e51b815260206004820181905260248201527f4552433732313a206d696e7420746f20746865207a65726f2061646472657373604482015290519081900360640190fd5b612a3481611e8e565b15612a86576040805162461bcd60e51b815260206004820152601c60248201527f4552433732313a20746f6b656e20616c7265616479206d696e74656400000000604482015290519081900360640190fd5b612a926000838361228b565b6001600160a01b0382166000908152600160205260409020612ab4908261237c565b50612ac160028284612388565b5060405181906001600160a01b038416906000907fddf252ad1be2c89b69c2b068fc378daa952ba7f163c4a11628f55a4df523b3ef908290a45050565b3b151590565b6060611fb4848460008585612b1885612afe565b612b69576040805162461bcd60e51b815260206004820152601d60248201527f416464726573733a2063616c6c20746f206e6f6e2d636f6e7472616374000000604482015290519081900360640190fd5b600080866001600160a01b031685876040518082805190602001908083835b60208310612ba75780518252601f199092019160209182019101612b88565b6001836020036101000a03801982511681845116808217855250505050505090500191505060006040518083038185875af1925050503d8060008114612c09576040519150601f19603f3d011682016040523d82523d6000602084013e612c0e565b606091505b5091509150612c1e828286612c29565b979650505050505050565b60608315612c38575081611151565b825115612c485782518084602001fd5b60405162461bcd60e51b81526020600482018181528451602484015284518593919283926044019190850190808383600083156124dd5781810151838201526020016124c5565b6040518061012001604052806060815260200160608152602001606081526020016000815260200160608152602001606081526020016060815260200160006001600160a01b0316815260200160006001600160a01b031681525090565b828054600181600116156101000203166002900490600052602060002090601f016020900481019282612d235760008555612d69565b82601f10612d3c57805160ff1916838001178555612d69565b82800160010185558215612d69579182015b82811115612d69578251825591602001919060010190612d4e565b50612d75929150612df3565b5090565b828054828255906000526020600020908101928215612dc6579160200282015b82811115612dc65782518051612db6918491602090910190612ced565b5091602001919060010190612d99565b50612d75929150612e08565b5080546000825590600052602060002090810190612df09190612e08565b50565b5b80821115612d755760008155600101612df4565b80821115612d75576000612e1c8282612e25565b50600101612e08565b50805460018160011615610100020316600290046000825580601f10612e4b5750612df0565b601f016020900490600052602060002090810190612df09190612df3565b600067ffffffffffffffff831115612e7d57fe5b612e90601f8401601f19166020016137a4565b9050828152838383011115612ea457600080fd5b828260208301376000602084830101529392505050565b80356001600160a01b038116811461083757600080fd5b600082601f830112612ee2578081fd5b8135602067ffffffffffffffff821115612ef857fe5b612f0581828402016137a4565b82815281810190858301855b85811015612f3a57612f28898684358b0101612f47565b84529284019290840190600101612f11565b5090979650505050505050565b600082601f830112612f57578081fd5b610fce83833560208501612e69565b6000610120808385031215612f79578182fd5b612f82816137a4565b915050813567ffffffffffffffff80821115612f9d57600080fd5b612fa985838601612f47565b83526020840135915080821115612fbf57600080fd5b612fcb85838601612f47565b60208401526040840135915080821115612fe457600080fd5b612ff085838601612f47565b604084015260608401356060840152608084013591508082111561301357600080fd5b61301f85838601612f47565b608084015260a084013591508082111561303857600080fd5b61304485838601612f47565b60a084015260c084013591508082111561305d57600080fd5b5061306a84828501612ed2565b60c08301525061307c60e08301612ebb565b60e082015261010061308f818401612ebb565b9082015292915050565b6000602082840312156130aa578081fd5b610fce82612ebb565b600080604083850312156130c5578081fd5b6130ce83612ebb565b91506130dc60208401612ebb565b90509250929050565b6000806000606084860312156130f9578081fd5b61310284612ebb565b925061311060208501612ebb565b9150604084013590509250925092565b60008060008060808587031215613135578081fd5b61313e85612ebb565b935061314c60208601612ebb565b925060408501359150606085013567ffffffffffffffff81111561316e578182fd5b8501601f8101871361317e578182fd5b61318d87823560208401612e69565b91505092959194509250565b600080604083850312156131ab578182fd5b6131b483612ebb565b9150602083013580151581146131c8578182fd5b809150509250929050565b600080604083850312156131e5578182fd5b6131ee83612ebb565b946020939093013593505050565b60006020828403121561320d578081fd5b81356001600160e01b031981168114611151578182fd5b600060208284031215613235578081fd5b813567ffffffffffffffff81111561324b578182fd5b611fb484828501612f66565b600060208284031215613268578081fd5b5035919050565b60008060408385031215613281578182fd5b82359150602083013567ffffffffffffffff81111561329e578182fd5b6132aa85828601612f66565b9150509250929050565b600080604083850312156132c6578182fd5b50508035926020909101359150565b6001600160a01b03169052565b6000815180845260208085018081965082840281019150828601855b8581101561332857828403895261331684835161337d565b988501989350908401906001016132fe565b5091979650505050505050565b6000815480845260208085018081965082840281019150858552828520855b8581101561332857828403895261336b84836133c8565b98850198935060019182019101613354565b60008151808452815b818110156133a257602081850181015186830182015201613386565b818111156133b35782602083870101525b50601f01601f19169290920160200192915050565b600081546001808216600081146133e6576001811461340457613442565b60028304607f16865260ff1983166020870152604086019350613442565b60028304808752613414866137c8565b60005b828110156134385781546020828b0101528482019150602081019050613417565b8801602001955050505b50505092915050565b600061012082518185526134618286018261337d565b9150506020830151848203602086015261347b828261337d565b91505060408301518482036040860152613495828261337d565b91505060608301516060850152608083015184820360808601526134b9828261337d565b91505060a083015184820360a08601526134d3828261337d565b91505060c083015184820360c08601526134ed82826132e2565b91505060e083015161350260e08601826132d5565b5061010080840151613516828701826132d5565b5090949350505050565b6001600160a01b0391909116815260200190565b6000602080830181845280855180835260408601915060408482028701019250838701855b8281101561358757603f1988860301845261357585835161344b565b94509285019290850190600101613559565b5092979650505050505050565b901515815260200190565b600060208252610fce602083018461337d565b60208082526017908201527f546f6b656e20494420646f6573206e6f74206578697374000000000000000000604082015260600190565b60208082526023908201527f506167652073697a65206d7573742062652067726561746572207468616e207a60408201526265726f60e81b606082015260800190565b6020808252602a908201527f4f6e6c7920636f6e7472616374206f776e65722063616e2063616c6c207468696040820152693990333ab731ba34b7b760b11b606082015260800190565b6020808252818101527f537461727420696e646578206578636565647320746f74616c20746f6b656e73604082015260600190565b600060208252610fce602083018461344b565b6000602082526101208060208401526136db6101408401856133c8565b601f19808583030160408601526136f582600188016133c8565b91508085830301606086015261370e82600288016133c8565b915060038601546080860152808583030160a086015261373182600488016133c8565b9150808583030160c086015261374a82600588016133c8565b9150808583030160e0860152506137648160068701613335565b905061377360078601546137d4565b6137816101008601826132d5565b5061378f60088601546137d4565b610d6d838601826132d5565b90815260200190565b60405181810167ffffffffffffffff811182821017156137c057fe5b604052919050565b60009081526020902090565b6001600160a01b03169056fe456e756d657261626c655365743a20696e646578206f7574206f6620626f756e64734552433732313a207472616e7366657220746f206e6f6e20455243373231526563656976657220696d706c656d656e7465724552433732313a207472616e7366657220746f20746865207a65726f20616464726573734552433732313a206f70657261746f7220717565727920666f72206e6f6e6578697374656e7420746f6b656e4552433732313a20617070726f76652063616c6c6572206973206e6f74206f776e6572206e6f7220617070726f76656420666f7220616c6c4552433732313a2062616c616e636520717565727920666f7220746865207a65726f20616464726573734552433732313a206f776e657220717565727920666f72206e6f6e6578697374656e7420746f6b656e456e756d657261626c654d61703a20696e646578206f7574206f6620626f756e64734552433732313a20617070726f76656420717565727920666f72206e6f6e6578697374656e7420746f6b656e4552433732313a207472616e73666572206f6620746f6b656e2074686174206973206e6f74206f776e4552433732314d657461646174613a2055524920717565727920666f72206e6f6e6578697374656e7420746f6b656e4552433732313a20617070726f76616c20746f2063757272656e74206f776e65724552433732313a207472616e736665722063616c6c6572206973206e6f74206f776e6572206e6f7220617070726f766564a2646970667358221220bb266a496b8d958a66efab97365b9859d865c2ab7f41e1e5bb445967842412df64736f6c63430007060033",
  "immutableReferences": {},
  "source": "pragma solidity >=0.4.22 <0.9.0;\r\n\r\npragma abicoder v2;\r\n\r\nimport \"../node_modules/openzeppelin-solidity/contracts/token/ERC721/ERC721.sol\";\r\nimport \"./Land.sol\";\r\n\r\ncontract LandHelper is ERC721 {\r\n    struct LandInfo {\r\n        string image;\r\n        address currentOwner;\r\n        address firstOwner;\r\n        string latitude;\r\n        string longitude;\r\n        uint256 area;\r\n        string title;\r\n        string zoning;\r\n        string[] features;\r\n        address to;\r\n        bool isMintable;\r\n        bool isDeclined;\r\n        bool isMinted;\r\n    }\r\n\r\n    address public owner;\r\n    Land public landContract;\r\n    uint public tokenIdCounter;\r\n    mapping(uint256 => LandInfo) private _landInfoByTokenId;\r\n\r\n    constructor(string memory _name, string memory _symbol) ERC721(_name, _symbol) {\r\n        tokenIdCounter = 1;\r\n        owner = msg.sender;\r\n        landContract = new Land(_name, _symbol);\r\n    }\r\n\r\n     function getOwner() public returns (address){\r\n        return owner;\r\n    }\r\n\r\n    modifier onlyOwner() {\r\n        require(msg.sender == owner, \"Only contract owner can call this function\");\r\n        _;\r\n    }\r\n\r\n    function createLandApplication(\r\n        string memory image,\r\n        string memory latitude,\r\n        string memory longitude,\r\n        uint256  area,\r\n        string memory title,\r\n        string memory zoning,\r\n        string[] memory features) public {\r\n\r\n        LandInfo memory newLandInfo = LandInfo({\r\n            image: image,\r\n            latitude: latitude,\r\n            longitude: longitude,\r\n            area: area,\r\n            title: title,\r\n            zoning: zoning,\r\n            features: features,\r\n            firstOwner: msg.sender,\r\n            currentOwner: msg.sender,\r\n            to: msg.sender,\r\n            isMintable: false,\r\n            isDeclined: false,\r\n            isMinted: false\r\n        });\r\n\r\n        _landInfoByTokenId[tokenIdCounter] = newLandInfo;\r\n        tokenIdCounter++;\r\n    }\r\n\r\n    function setMintable(uint256 tokenId) external onlyOwner {\r\n        require(msg.sender == owner, \"Only the contract owner can set mintable status.\");\r\n        require(tokenId < tokenIdCounter, \"Token ID does not exist.\");\r\n        require(_landInfoByTokenId[tokenId].isDeclined == false, 'This application is already declined. Please create a new one.');\r\n\r\n        _landInfoByTokenId[tokenId].isMintable = true;\r\n    }\r\n\r\n    function setDeclined(uint256 tokenId) external onlyOwner {\r\n        require(msg.sender == owner, \"Only the contract owner can set mintable status.\");\r\n        require(tokenId < tokenIdCounter, \"Token ID does not exist.\");\r\n\r\n        _landInfoByTokenId[tokenId].isDeclined = true;\r\n    }\r\n\r\n    function mintcustomNFT(uint256 tokenId) public {\r\n        require(_landInfoByTokenId[tokenId].isMintable == true, 'Must be mintable.');\r\n        require(_landInfoByTokenId[tokenId].isMinted == false, 'You already minted this NFT.');\r\n        require(_landInfoByTokenId[tokenId].to == msg.sender, 'You must be the owner of this application.');\r\n        _landInfoByTokenId[tokenId].isMinted == true;\r\n        \r\n        Land.LandInfo storage currentLandInfo;\r\n\r\n        currentLandInfo.image = _landInfoByTokenId[tokenId].image;\r\n        currentLandInfo.latitude = _landInfoByTokenId[tokenId].latitude;\r\n        currentLandInfo.longitude = _landInfoByTokenId[tokenId].longitude;\r\n        currentLandInfo.area = _landInfoByTokenId[tokenId].area;\r\n        currentLandInfo.title = _landInfoByTokenId[tokenId].title;\r\n        currentLandInfo.zoning = _landInfoByTokenId[tokenId].zoning;\r\n        currentLandInfo.features = _landInfoByTokenId[tokenId].features;\r\n        currentLandInfo.firstOwner = _landInfoByTokenId[tokenId].firstOwner;\r\n        currentLandInfo.currentOwner = _landInfoByTokenId[tokenId].currentOwner;\r\n        \r\n        landContract.mintNFT(currentLandInfo);\r\n    }\r\n\r\n    function getLandInfo(uint256 tokenId) public view returns (LandInfo memory) {\r\n        require(tokenId < tokenIdCounter, \"Token ID does not exist.\");\r\n        return _landInfoByTokenId[tokenId];\r\n    }\r\n\r\n    function getNonMintableLands() public view returns (uint256[] memory, LandInfo[] memory) {\r\n        uint256 nonMintableCount = 0;\r\n\r\n        // First, count the number of non-mintable lands\r\n        for (uint256 i = 0; i < tokenIdCounter; i++) {\r\n            if (!_landInfoByTokenId[i].isMintable && !_landInfoByTokenId[i].isDeclined) {\r\n                nonMintableCount++;\r\n            }\r\n        }\r\n\r\n        // Create arrays to hold the token IDs and non-mintable lands starting from index 1\r\n        uint256[] memory tokenIds = new uint256[](nonMintableCount + 1);\r\n        LandInfo[] memory nonMintableLands = new LandInfo[](nonMintableCount + 1);\r\n        uint256 index = 1;\r\n\r\n        // Collect the token IDs and non-mintable lands starting from index 1\r\n        for (uint256 i = 0; i < tokenIdCounter; i++) {\r\n            if (!_landInfoByTokenId[i].isMintable && !_landInfoByTokenId[i].isDeclined) {\r\n                tokenIds[index] = i;\r\n                nonMintableLands[index] = _landInfoByTokenId[i];\r\n                index++;\r\n            }\r\n        }\r\n\r\n        return (tokenIds, nonMintableLands);\r\n    }\r\n\r\n    function getChildAddress() public view returns (address) {\r\n        return address(landContract);\r\n    }\r\n\r\n    function getApplicationsByAddress(address addr) public view returns (uint256[] memory, LandInfo[] memory) {\r\n        uint256 applicationCount = 0;\r\n\r\n        // Count the number of applications associated with the given address\r\n        for (uint256 i = 0; i < tokenIdCounter; i++) {\r\n            if (_landInfoByTokenId[i].to == addr) {\r\n                applicationCount++;\r\n            }\r\n        }\r\n\r\n        // Create arrays to hold the application IDs and application information\r\n        uint256[] memory applicationIds = new uint256[](applicationCount + 1);\r\n        LandInfo[] memory applications = new LandInfo[](applicationCount + 1);\r\n        uint256 index = 1;\r\n\r\n        // Collect the application IDs and application information\r\n        for (uint256 i = 0; i < tokenIdCounter; i++) {\r\n            if (_landInfoByTokenId[i].to == addr) {\r\n                applicationIds[index] = i;\r\n                applications[index] = _landInfoByTokenId[i];\r\n                index++;\r\n            }\r\n        }\r\n\r\n        return (applicationIds, applications);\r\n    }\r\n}",
  "sourcePath": "C:\\Users\\Hp\\Desktop\\Yeni klasr\\contracts\\LandHelper.sol",
  "compiler": {
    "name": "solc",
    "version": "0.7.6+commit.7338295f.Emscripten.clang"
  },
  "schemaVersion": "3.4.16",
  "updatedAt": "2024-05-29T21:13:31.387Z",
  "devdoc": {
    "kind": "dev",
    "methods": {
      "approve(address,uint256)": {
        "details": "See {IERC721-approve}."
      },
      "balanceOf(address)": {
        "details": "See {IERC721-balanceOf}."
      },
      "baseURI()": {
        "details": "Returns the base URI set via {_setBaseURI}. This will be automatically added as a prefix in {tokenURI} to each token's URI, or to the token ID if no specific URI is set for that token ID."
      },
      "getApproved(uint256)": {
        "details": "See {IERC721-getApproved}."
      },
      "isApprovedForAll(address,address)": {
        "details": "See {IERC721-isApprovedForAll}."
      },
      "name()": {
        "details": "See {IERC721Metadata-name}."
      },
      "ownerOf(uint256)": {
        "details": "See {IERC721-ownerOf}."
      },
      "safeTransferFrom(address,address,uint256)": {
        "details": "See {IERC721-safeTransferFrom}."
      },
      "safeTransferFrom(address,address,uint256,bytes)": {
        "details": "See {IERC721-safeTransferFrom}."
      },
      "setApprovalForAll(address,bool)": {
        "details": "See {IERC721-setApprovalForAll}."
      },
      "supportsInterface(bytes4)": {
        "details": "See {IERC165-supportsInterface}. Time complexity O(1), guaranteed to always use less than 30 000 gas."
      },
      "symbol()": {
        "details": "See {IERC721Metadata-symbol}."
      },
      "tokenByIndex(uint256)": {
        "details": "See {IERC721Enumerable-tokenByIndex}."
      },
      "tokenOfOwnerByIndex(address,uint256)": {
        "details": "See {IERC721Enumerable-tokenOfOwnerByIndex}."
      },
      "tokenURI(uint256)": {
        "details": "See {IERC721Metadata-tokenURI}."
      },
      "totalSupply()": {
        "details": "See {IERC721Enumerable-totalSupply}."
      },
      "transferFrom(address,address,uint256)": {
        "details": "See {IERC721-transferFrom}."
      }
    },
    "version": 1
  },
  "userdoc": {
    "kind": "user",
    "methods": {},
    "version": 1
  }
}