{
  "contractName": "Vehicle",
  "abi": [
    {
      "inputs": [
        {
          "internalType": "string",
          "name": "_name",
          "type": "string"
        },
        {
          "internalType": "string",
          "name": "_symbol",
          "type": "string"
        }
      ],
      "stateMutability": "nonpayable",
      "type": "constructor"
    },
    {
      "anonymous": false,
      "inputs": [
        {
          "indexed": true,
          "internalType": "address",
          "name": "owner",
          "type": "address"
        },
        {
          "indexed": true,
          "internalType": "address",
          "name": "approved",
          "type": "address"
        },
        {
          "indexed": true,
          "internalType": "uint256",
          "name": "tokenId",
          "type": "uint256"
        }
      ],
      "name": "Approval",
      "type": "event"
    },
    {
      "anonymous": false,
      "inputs": [
        {
          "indexed": true,
          "internalType": "address",
          "name": "owner",
          "type": "address"
        },
        {
          "indexed": true,
          "internalType": "address",
          "name": "operator",
          "type": "address"
        },
        {
          "indexed": false,
          "internalType": "bool",
          "name": "approved",
          "type": "bool"
        }
      ],
      "name": "ApprovalForAll",
      "type": "event"
    },
    {
      "anonymous": false,
      "inputs": [
        {
          "indexed": true,
          "internalType": "address",
          "name": "from",
          "type": "address"
        },
        {
          "indexed": true,
          "internalType": "address",
          "name": "to",
          "type": "address"
        },
        {
          "indexed": true,
          "internalType": "uint256",
          "name": "tokenId",
          "type": "uint256"
        }
      ],
      "name": "Transfer",
      "type": "event"
    },
    {
      "anonymous": false,
      "inputs": [
        {
          "indexed": true,
          "internalType": "uint256",
          "name": "tokenId",
          "type": "uint256"
        },
        {
          "components": [
            {
              "internalType": "string",
              "name": "image",
              "type": "string"
            },
            {
              "internalType": "string",
              "name": "manufacturer",
              "type": "string"
            },
            {
              "internalType": "string",
              "name": "model",
              "type": "string"
            },
            {
              "internalType": "uint256",
              "name": "year",
              "type": "uint256"
            },
            {
              "internalType": "string",
              "name": "color",
              "type": "string"
            },
            {
              "internalType": "string",
              "name": "VIN",
              "type": "string"
            },
            {
              "internalType": "string",
              "name": "vehicleType",
              "type": "string"
            },
            {
              "internalType": "string",
              "name": "fuelType",
              "type": "string"
            },
            {
              "internalType": "string",
              "name": "transmissionType",
              "type": "string"
            },
            {
              "internalType": "address",
              "name": "firstOwner",
              "type": "address"
            },
            {
              "internalType": "address",
              "name": "currentOwner",
              "type": "address"
            }
          ],
          "indexed": false,
          "internalType": "struct Vehicle.VehicleInfo",
          "name": "newVehicleInfo",
          "type": "tuple"
        }
      ],
      "name": "VehicleInfoUpdated",
      "type": "event"
    },
    {
      "inputs": [
        {
          "internalType": "address",
          "name": "to",
          "type": "address"
        },
        {
          "internalType": "uint256",
          "name": "tokenId",
          "type": "uint256"
        }
      ],
      "name": "approve",
      "outputs": [],
      "stateMutability": "nonpayable",
      "type": "function"
    },
    {
      "inputs": [
        {
          "internalType": "address",
          "name": "owner",
          "type": "address"
        }
      ],
      "name": "balanceOf",
      "outputs": [
        {
          "internalType": "uint256",
          "name": "",
          "type": "uint256"
        }
      ],
      "stateMutability": "view",
      "type": "function"
    },
    {
      "inputs": [],
      "name": "baseURI",
      "outputs": [
        {
          "internalType": "string",
          "name": "",
          "type": "string"
        }
      ],
      "stateMutability": "view",
      "type": "function"
    },
    {
      "inputs": [
        {
          "internalType": "uint256",
          "name": "tokenId",
          "type": "uint256"
        }
      ],
      "name": "getApproved",
      "outputs": [
        {
          "internalType": "address",
          "name": "",
          "type": "address"
        }
      ],
      "stateMutability": "view",
      "type": "function"
    },
    {
      "inputs": [
        {
          "internalType": "address",
          "name": "owner",
          "type": "address"
        },
        {
          "internalType": "address",
          "name": "operator",
          "type": "address"
        }
      ],
      "name": "isApprovedForAll",
      "outputs": [
        {
          "internalType": "bool",
          "name": "",
          "type": "bool"
        }
      ],
      "stateMutability": "view",
      "type": "function"
    },
    {
      "inputs": [],
      "name": "name",
      "outputs": [
        {
          "internalType": "string",
          "name": "",
          "type": "string"
        }
      ],
      "stateMutability": "view",
      "type": "function"
    },
    {
      "inputs": [],
      "name": "owner",
      "outputs": [
        {
          "internalType": "address",
          "name": "",
          "type": "address"
        }
      ],
      "stateMutability": "view",
      "type": "function"
    },
    {
      "inputs": [
        {
          "internalType": "uint256",
          "name": "tokenId",
          "type": "uint256"
        }
      ],
      "name": "ownerOf",
      "outputs": [
        {
          "internalType": "address",
          "name": "",
          "type": "address"
        }
      ],
      "stateMutability": "view",
      "type": "function"
    },
    {
      "inputs": [
        {
          "internalType": "address",
          "name": "from",
          "type": "address"
        },
        {
          "internalType": "address",
          "name": "to",
          "type": "address"
        },
        {
          "internalType": "uint256",
          "name": "tokenId",
          "type": "uint256"
        }
      ],
      "name": "safeTransferFrom",
      "outputs": [],
      "stateMutability": "nonpayable",
      "type": "function"
    },
    {
      "inputs": [
        {
          "internalType": "address",
          "name": "from",
          "type": "address"
        },
        {
          "internalType": "address",
          "name": "to",
          "type": "address"
        },
        {
          "internalType": "uint256",
          "name": "tokenId",
          "type": "uint256"
        },
        {
          "internalType": "bytes",
          "name": "_data",
          "type": "bytes"
        }
      ],
      "name": "safeTransferFrom",
      "outputs": [],
      "stateMutability": "nonpayable",
      "type": "function"
    },
    {
      "inputs": [
        {
          "internalType": "address",
          "name": "operator",
          "type": "address"
        },
        {
          "internalType": "bool",
          "name": "approved",
          "type": "bool"
        }
      ],
      "name": "setApprovalForAll",
      "outputs": [],
      "stateMutability": "nonpayable",
      "type": "function"
    },
    {
      "inputs": [
        {
          "internalType": "bytes4",
          "name": "interfaceId",
          "type": "bytes4"
        }
      ],
      "name": "supportsInterface",
      "outputs": [
        {
          "internalType": "bool",
          "name": "",
          "type": "bool"
        }
      ],
      "stateMutability": "view",
      "type": "function"
    },
    {
      "inputs": [],
      "name": "symbol",
      "outputs": [
        {
          "internalType": "string",
          "name": "",
          "type": "string"
        }
      ],
      "stateMutability": "view",
      "type": "function"
    },
    {
      "inputs": [
        {
          "internalType": "uint256",
          "name": "index",
          "type": "uint256"
        }
      ],
      "name": "tokenByIndex",
      "outputs": [
        {
          "internalType": "uint256",
          "name": "",
          "type": "uint256"
        }
      ],
      "stateMutability": "view",
      "type": "function"
    },
    {
      "inputs": [],
      "name": "tokenIdCounter",
      "outputs": [
        {
          "internalType": "uint256",
          "name": "",
          "type": "uint256"
        }
      ],
      "stateMutability": "view",
      "type": "function"
    },
    {
      "inputs": [
        {
          "internalType": "address",
          "name": "owner",
          "type": "address"
        },
        {
          "internalType": "uint256",
          "name": "index",
          "type": "uint256"
        }
      ],
      "name": "tokenOfOwnerByIndex",
      "outputs": [
        {
          "internalType": "uint256",
          "name": "",
          "type": "uint256"
        }
      ],
      "stateMutability": "view",
      "type": "function"
    },
    {
      "inputs": [
        {
          "internalType": "uint256",
          "name": "tokenId",
          "type": "uint256"
        }
      ],
      "name": "tokenURI",
      "outputs": [
        {
          "internalType": "string",
          "name": "",
          "type": "string"
        }
      ],
      "stateMutability": "view",
      "type": "function"
    },
    {
      "inputs": [],
      "name": "totalSupply",
      "outputs": [
        {
          "internalType": "uint256",
          "name": "",
          "type": "uint256"
        }
      ],
      "stateMutability": "view",
      "type": "function"
    },
    {
      "inputs": [
        {
          "internalType": "address",
          "name": "from",
          "type": "address"
        },
        {
          "internalType": "address",
          "name": "to",
          "type": "address"
        },
        {
          "internalType": "uint256",
          "name": "tokenId",
          "type": "uint256"
        }
      ],
      "name": "transferFrom",
      "outputs": [],
      "stateMutability": "nonpayable",
      "type": "function"
    },
    {
      "inputs": [
        {
          "components": [
            {
              "internalType": "string",
              "name": "image",
              "type": "string"
            },
            {
              "internalType": "string",
              "name": "manufacturer",
              "type": "string"
            },
            {
              "internalType": "string",
              "name": "model",
              "type": "string"
            },
            {
              "internalType": "uint256",
              "name": "year",
              "type": "uint256"
            },
            {
              "internalType": "string",
              "name": "color",
              "type": "string"
            },
            {
              "internalType": "string",
              "name": "VIN",
              "type": "string"
            },
            {
              "internalType": "string",
              "name": "vehicleType",
              "type": "string"
            },
            {
              "internalType": "string",
              "name": "fuelType",
              "type": "string"
            },
            {
              "internalType": "string",
              "name": "transmissionType",
              "type": "string"
            },
            {
              "internalType": "address",
              "name": "firstOwner",
              "type": "address"
            },
            {
              "internalType": "address",
              "name": "currentOwner",
              "type": "address"
            }
          ],
          "internalType": "struct Vehicle.VehicleInfo",
          "name": "_vehicleInfo",
          "type": "tuple"
        }
      ],
      "name": "mintNFT",
      "outputs": [],
      "stateMutability": "nonpayable",
      "type": "function"
    },
    {
      "inputs": [
        {
          "internalType": "uint256",
          "name": "_tokenId",
          "type": "uint256"
        },
        {
          "components": [
            {
              "internalType": "string",
              "name": "image",
              "type": "string"
            },
            {
              "internalType": "string",
              "name": "manufacturer",
              "type": "string"
            },
            {
              "internalType": "string",
              "name": "model",
              "type": "string"
            },
            {
              "internalType": "uint256",
              "name": "year",
              "type": "uint256"
            },
            {
              "internalType": "string",
              "name": "color",
              "type": "string"
            },
            {
              "internalType": "string",
              "name": "VIN",
              "type": "string"
            },
            {
              "internalType": "string",
              "name": "vehicleType",
              "type": "string"
            },
            {
              "internalType": "string",
              "name": "fuelType",
              "type": "string"
            },
            {
              "internalType": "string",
              "name": "transmissionType",
              "type": "string"
            },
            {
              "internalType": "address",
              "name": "firstOwner",
              "type": "address"
            },
            {
              "internalType": "address",
              "name": "currentOwner",
              "type": "address"
            }
          ],
          "internalType": "struct Vehicle.VehicleInfo",
          "name": "_newVehicleInfo",
          "type": "tuple"
        }
      ],
      "name": "editVehicleInfo",
      "outputs": [],
      "stateMutability": "nonpayable",
      "type": "function"
    },
    {
      "inputs": [
        {
          "internalType": "string",
          "name": "_VIN",
          "type": "string"
        }
      ],
      "name": "getVehicleInfoByVIN",
      "outputs": [
        {
          "components": [
            {
              "internalType": "string",
              "name": "image",
              "type": "string"
            },
            {
              "internalType": "string",
              "name": "manufacturer",
              "type": "string"
            },
            {
              "internalType": "string",
              "name": "model",
              "type": "string"
            },
            {
              "internalType": "uint256",
              "name": "year",
              "type": "uint256"
            },
            {
              "internalType": "string",
              "name": "color",
              "type": "string"
            },
            {
              "internalType": "string",
              "name": "VIN",
              "type": "string"
            },
            {
              "internalType": "string",
              "name": "vehicleType",
              "type": "string"
            },
            {
              "internalType": "string",
              "name": "fuelType",
              "type": "string"
            },
            {
              "internalType": "string",
              "name": "transmissionType",
              "type": "string"
            },
            {
              "internalType": "address",
              "name": "firstOwner",
              "type": "address"
            },
            {
              "internalType": "address",
              "name": "currentOwner",
              "type": "address"
            }
          ],
          "internalType": "struct Vehicle.VehicleInfo",
          "name": "",
          "type": "tuple"
        }
      ],
      "stateMutability": "view",
      "type": "function"
    },
    {
      "inputs": [
        {
          "internalType": "uint256",
          "name": "_tokenId",
          "type": "uint256"
        }
      ],
      "name": "getVehicleInfoId",
      "outputs": [
        {
          "components": [
            {
              "internalType": "string",
              "name": "image",
              "type": "string"
            },
            {
              "internalType": "string",
              "name": "manufacturer",
              "type": "string"
            },
            {
              "internalType": "string",
              "name": "model",
              "type": "string"
            },
            {
              "internalType": "uint256",
              "name": "year",
              "type": "uint256"
            },
            {
              "internalType": "string",
              "name": "color",
              "type": "string"
            },
            {
              "internalType": "string",
              "name": "VIN",
              "type": "string"
            },
            {
              "internalType": "string",
              "name": "vehicleType",
              "type": "string"
            },
            {
              "internalType": "string",
              "name": "fuelType",
              "type": "string"
            },
            {
              "internalType": "string",
              "name": "transmissionType",
              "type": "string"
            },
            {
              "internalType": "address",
              "name": "firstOwner",
              "type": "address"
            },
            {
              "internalType": "address",
              "name": "currentOwner",
              "type": "address"
            }
          ],
          "internalType": "struct Vehicle.VehicleInfo",
          "name": "",
          "type": "tuple"
        }
      ],
      "stateMutability": "view",
      "type": "function"
    },
    {
      "inputs": [
        {
          "internalType": "uint256",
          "name": "_tokenId",
          "type": "uint256"
        }
      ],
      "name": "getTokenOwnerById",
      "outputs": [
        {
          "internalType": "address",
          "name": "",
          "type": "address"
        }
      ],
      "stateMutability": "view",
      "type": "function"
    },
    {
      "inputs": [
        {
          "internalType": "string",
          "name": "_VIN",
          "type": "string"
        }
      ],
      "name": "getTokenOwnerByVIN",
      "outputs": [
        {
          "internalType": "address",
          "name": "",
          "type": "address"
        }
      ],
      "stateMutability": "view",
      "type": "function"
    },
    {
      "inputs": [
        {
          "internalType": "uint256",
          "name": "_tokenId",
          "type": "uint256"
        }
      ],
      "name": "forceRetrieveToken",
      "outputs": [],
      "stateMutability": "nonpayable",
      "type": "function"
    },
    {
      "inputs": [
        {
          "internalType": "address",
          "name": "_owner",
          "type": "address"
        }
      ],
      "name": "getAllVehicleInfoByOwner",
      "outputs": [
        {
          "components": [
            {
              "internalType": "string",
              "name": "image",
              "type": "string"
            },
            {
              "internalType": "string",
              "name": "manufacturer",
              "type": "string"
            },
            {
              "internalType": "string",
              "name": "model",
              "type": "string"
            },
            {
              "internalType": "uint256",
              "name": "year",
              "type": "uint256"
            },
            {
              "internalType": "string",
              "name": "color",
              "type": "string"
            },
            {
              "internalType": "string",
              "name": "VIN",
              "type": "string"
            },
            {
              "internalType": "string",
              "name": "vehicleType",
              "type": "string"
            },
            {
              "internalType": "string",
              "name": "fuelType",
              "type": "string"
            },
            {
              "internalType": "string",
              "name": "transmissionType",
              "type": "string"
            },
            {
              "internalType": "address",
              "name": "firstOwner",
              "type": "address"
            },
            {
              "internalType": "address",
              "name": "currentOwner",
              "type": "address"
            }
          ],
          "internalType": "struct Vehicle.VehicleInfo[]",
          "name": "",
          "type": "tuple[]"
        }
      ],
      "stateMutability": "view",
      "type": "function"
    },
    {
      "inputs": [
        {
          "internalType": "uint256",
          "name": "_pageNumber",
          "type": "uint256"
        },
        {
          "internalType": "uint256",
          "name": "_pageSize",
          "type": "uint256"
        }
      ],
      "name": "getAllVehicles",
      "outputs": [
        {
          "components": [
            {
              "internalType": "string",
              "name": "image",
              "type": "string"
            },
            {
              "internalType": "string",
              "name": "manufacturer",
              "type": "string"
            },
            {
              "internalType": "string",
              "name": "model",
              "type": "string"
            },
            {
              "internalType": "uint256",
              "name": "year",
              "type": "uint256"
            },
            {
              "internalType": "string",
              "name": "color",
              "type": "string"
            },
            {
              "internalType": "string",
              "name": "VIN",
              "type": "string"
            },
            {
              "internalType": "string",
              "name": "vehicleType",
              "type": "string"
            },
            {
              "internalType": "string",
              "name": "fuelType",
              "type": "string"
            },
            {
              "internalType": "string",
              "name": "transmissionType",
              "type": "string"
            },
            {
              "internalType": "address",
              "name": "firstOwner",
              "type": "address"
            },
            {
              "internalType": "address",
              "name": "currentOwner",
              "type": "address"
            }
          ],
          "internalType": "struct Vehicle.VehicleInfo[]",
          "name": "",
          "type": "tuple[]"
        }
      ],
      "stateMutability": "view",
      "type": "function"
    },
    {
      "inputs": [
        {
          "internalType": "uint256",
          "name": "_pageSize",
          "type": "uint256"
        }
      ],
      "name": "getAvailablePageCount",
      "outputs": [
        {
          "internalType": "uint256",
          "name": "",
          "type": "uint256"
        }
      ],
      "stateMutability": "view",
      "type": "function"
    },
    {
      "inputs": [
        {
          "internalType": "uint256",
          "name": "_tokenId",
          "type": "uint256"
        }
      ],
      "name": "getCurrentOwnerByTokenId",
      "outputs": [
        {
          "internalType": "address",
          "name": "",
          "type": "address"
        }
      ],
      "stateMutability": "view",
      "type": "function"
    },
    {
      "inputs": [
        {
          "internalType": "string",
          "name": "_VIN",
          "type": "string"
        }
      ],
      "name": "getCurrentOwnerByVIN",
      "outputs": [
        {
          "internalType": "address",
          "name": "",
          "type": "address"
        }
      ],
      "stateMutability": "view",
      "type": "function"
    }
  ],
  "bytecode": "0x60806040523480156200001157600080fd5b506040516200490338038062004903833981016040819052620000349162000297565b8181620000486301ffc9a760e01b620000cb565b81516200005d90600690602085019062000150565b5080516200007390600790602084019062000150565b50620000866380ac58cd60e01b620000cb565b62000098635b5e139f60e01b620000cb565b620000aa63780e9d6360e01b620000cb565b50506001600b555050600a80546001600160a01b03191633179055620002fe565b6001600160e01b031980821614156200012b576040805162461bcd60e51b815260206004820152601c60248201527f4552433136353a20696e76616c696420696e7465726661636520696400000000604482015290519081900360640190fd5b6001600160e01b0319166000908152602081905260409020805460ff19166001179055565b828054600181600116156101000203166002900490600052602060002090601f016020900481019282620001885760008555620001d3565b82601f10620001a357805160ff1916838001178555620001d3565b82800160010185558215620001d3579182015b82811115620001d3578251825591602001919060010190620001b6565b50620001e1929150620001e5565b5090565b5b80821115620001e15760008155600101620001e6565b600082601f8301126200020d578081fd5b81516001600160401b03808211156200022257fe5b6040516020601f8401601f19168201810183811183821017156200024257fe5b604052838252858401810187101562000259578485fd5b8492505b838310156200027c57858301810151828401820152918201916200025d565b838311156200028d57848185840101525b5095945050505050565b60008060408385031215620002aa578182fd5b82516001600160401b0380821115620002c1578384fd5b620002cf86838701620001fc565b93506020850151915080821115620002e5578283fd5b50620002f485828601620001fc565b9150509250929050565b6145f5806200030e6000396000f3fe608060405234801561001057600080fd5b50600436106101e55760003560e01c80637e43bf5b1161010f5780639f7e8461116100a2578063c3cb5a4011610071578063c3cb5a4014610402578063c87b56dd14610415578063e5bf363c14610428578063e985e9c51461043b576101e5565b80639f7e8461146103b6578063a22cb465146103c9578063b88d4fde146103dc578063ba87d081146103ef576101e5565b806395d89b41116100de57806395d89b411461037357806398bdf6f51461037b5780639c3ff91a146103835780639da2f386146103a3576101e5565b80637e43bf5b146103325780637fb93133146103455780638da5cb5b1461035857806393fdc09114610360576101e5565b80633940fc4b116101875780636352211e116101565780636352211e146102f15780636c0360eb1461030457806370a082311461030c5780637bfdbbd61461031f576101e5565b80633940fc4b146102985780633eaec423146102ab57806342842e0e146102cb5780634f6ccce7146102de576101e5565b8063095ea7b3116101c3578063095ea7b31461024857806318160ddd1461025d57806323b872dd146102725780632f745c5914610285576101e5565b806301ffc9a7146101ea57806306fdde0314610213578063081812fc14610228575b600080fd5b6101fd6101f8366004613c6e565b61044e565b60405161020a919061404e565b60405180910390f35b61021b610471565b60405161020a9190614059565b61023b610236366004613cfc565b610507565b60405161020a9190613fda565b61025b610256366004613c45565b610569565b005b61026561063f565b60405161020a9190614327565b61025b610280366004613b57565b610650565b610265610293366004613c45565b6106a7565b61025b6102a6366004613d14565b6106d2565b6102be6102b9366004613cfc565b6109a5565b60405161020a9190614203565b61025b6102d9366004613b57565b610ec6565b6102656102ec366004613cfc565b610ee1565b61023b6102ff366004613cfc565b610ef7565b61021b610f1f565b61026561031a366004613b0b565b610f80565b61023b61032d366004613c96565b610fe8565b6102be610340366004613c96565b61105c565b610265610353366004613cfc565b6115b6565b61023b611614565b61025b61036e366004613cc9565b611623565b61021b611841565b6102656118a2565b610396610391366004613d59565b6118a8565b60405161020a9190613fee565b61025b6103b1366004613cfc565b611e70565b61023b6103c4366004613cfc565b611ee9565b61025b6103d7366004613c0b565b611f19565b61025b6103ea366004613b92565b61201e565b61023b6103fd366004613cfc565b61207c565b61023b610410366004613c96565b6120c2565b61021b610423366004613cfc565b612147565b610396610436366004613b0b565b6123c8565b6101fd610449366004613b25565b6129c7565b6001600160e01b0319811660009081526020819052604090205460ff165b919050565b60068054604080516020601f60026000196101006001881615020190951694909404938401819004810282018101909252828152606093909290918301828280156104fd5780601f106104d2576101008083540402835291602001916104fd565b820191906000526020600020905b8154815290600101906020018083116104e057829003601f168201915b5050505050905090565b6000610512826129f5565b61054d5760405162461bcd60e51b815260040180806020018281038252602c8152602001806144ea602c913960400191505060405180910390fd5b506000908152600460205260409020546001600160a01b031690565b600061057482610ef7565b9050806001600160a01b0316836001600160a01b031614156105c75760405162461bcd60e51b815260040180806020018281038252602181526020018061456e6021913960400191505060405180910390fd5b806001600160a01b03166105d9612a02565b6001600160a01b031614806105f557506105f581610449612a02565b6106305760405162461bcd60e51b815260040180806020018281038252603881526020018061443d6038913960400191505060405180910390fd5b61063a8383612a06565b505050565b600061064b6002612a74565b905090565b61066161065b612a02565b82612a7f565b61069c5760405162461bcd60e51b815260040180806020018281038252603181526020018061458f6031913960400191505060405180910390fd5b61063a838383612b23565b6001600160a01b03821660009081526001602052604081206106c99083612c6f565b90505b92915050565b600a546001600160a01b031633146107055760405162461bcd60e51b81526004016106fc90614184565b60405180910390fd5b61070e826129f5565b61072a5760405162461bcd60e51b81526004016106fc9061410a565b6000600c600084815260200190815260200160002090508160a00151805190602001208160050160405161075e9190613fb2565b60405180910390201461088657600d8260a0015160405161077f9190613fbe565b9081526040519081900360200190205460ff16156107af5760405162461bcd60e51b81526004016106fc906140da565b6000600d826005016040516107c49190613fb2565b908152604051908190036020018120805492151560ff199093169290921790915560a0830151600191600d916107f991613fbe565b908152604051908190036020018120805492151560ff1990931692909217909155600e9061082b906005840190613fb2565b908152602001604051809103902054600e8360a0015160405161084e9190613fbe565b908152602001604051809103902081905550600e816005016040516108739190613fb2565b9081526020016040518091039020600090555b8151805161089b9183916020909101906137f6565b5060208083015180516108b492600185019201906137f6565b50604082015180516108d09160028401916020909101906137f6565b5060608201516003820155608082015180516108f69160048401916020909101906137f6565b5060a082015180516109129160058401916020909101906137f6565b5060c0820151805161092e9160068401916020909101906137f6565b5060e0820151805161094a9160078401916020909101906137f6565b5061010082015180516109679160088401916020909101906137f6565b50827f733db040dfeb3329870f2b279a4529b0a16bf04fc8e7151d084af91010eb89cc826040516109989190614216565b60405180910390a2505050565b6109ad613882565b6109b6826129f5565b6109d25760405162461bcd60e51b81526004016106fc9061410a565b6000828152600c60209081526040918290208251815460026001821615610100026000190190911604601f810184900490930281016101809081019094526101608101838152909391928492849190840182828015610a725780601f10610a4757610100808354040283529160200191610a72565b820191906000526020600020905b815481529060010190602001808311610a5557829003601f168201915b50505050508152602001600182018054600181600116156101000203166002900480601f016020809104026020016040519081016040528092919081815260200182805460018160011615610100020316600290048015610b145780601f10610ae957610100808354040283529160200191610b14565b820191906000526020600020905b815481529060010190602001808311610af757829003601f168201915b5050509183525050600282810180546040805160206001841615610100026000190190931694909404601f81018390048302850183019091528084529381019390830182828015610ba65780601f10610b7b57610100808354040283529160200191610ba6565b820191906000526020600020905b815481529060010190602001808311610b8957829003601f168201915b5050509183525050600382015460208083019190915260048301805460408051601f60026000196101006001871615020190941693909304928301859004850281018501825282815294019392830182828015610c445780601f10610c1957610100808354040283529160200191610c44565b820191906000526020600020905b815481529060010190602001808311610c2757829003601f168201915b505050918352505060058201805460408051602060026001851615610100026000190190941693909304601f8101849004840282018401909252818152938201939291830182828015610cd85780601f10610cad57610100808354040283529160200191610cd8565b820191906000526020600020905b815481529060010190602001808311610cbb57829003601f168201915b505050918352505060068201805460408051602060026001851615610100026000190190941693909304601f8101849004840282018401909252818152938201939291830182828015610d6c5780601f10610d4157610100808354040283529160200191610d6c565b820191906000526020600020905b815481529060010190602001808311610d4f57829003601f168201915b505050918352505060078201805460408051602060026001851615610100026000190190941693909304601f8101849004840282018401909252818152938201939291830182828015610e005780601f10610dd557610100808354040283529160200191610e00565b820191906000526020600020905b815481529060010190602001808311610de357829003601f168201915b505050918352505060088201805460408051602060026001851615610100026000190190941693909304601f8101849004840282018401909252818152938201939291830182828015610e945780601f10610e6957610100808354040283529160200191610e94565b820191906000526020600020905b815481529060010190602001808311610e7757829003601f168201915b505050918352505060098201546001600160a01b039081166020830152600a9092015490911660409091015292915050565b61063a8383836040518060200160405280600081525061201e565b600080610eef600284612c7b565b509392505050565b60006106cc8260405180606001604052806029815260200161449f6029913960029190612c97565b60098054604080516020601f60026000196101006001881615020190951694909404938401819004810282018101909252828152606093909290918301828280156104fd5780601f106104d2576101008083540402835291602001916104fd565b60006001600160a01b038216610fc75760405162461bcd60e51b815260040180806020018281038252602a815260200180614475602a913960400191505060405180910390fd5b6001600160a01b03821660009081526001602052604090206106cc90612a74565b6000600e82604051610ffa9190613fbe565b908152602001604051809103902054600014156110295760405162461bcd60e51b81526004016106fc90614098565b6000600e8360405161103b9190613fbe565b908152602001604051809103902054905061105581610ef7565b9392505050565b611064613882565b600e826040516110749190613fbe565b908152602001604051809103902054600014156110a35760405162461bcd60e51b81526004016106fc90614098565b6000600e836040516110b59190613fbe565b9081526040805160209281900383018120546000818152600c8552839020805460026001821615610100026000190190911604601f81018690049095028301610180908101909452610160830185815291955091939192849284918401828280156111615780601f1061113657610100808354040283529160200191611161565b820191906000526020600020905b81548152906001019060200180831161114457829003601f168201915b50505050508152602001600182018054600181600116156101000203166002900480601f0160208091040260200160405190810160405280929190818152602001828054600181600116156101000203166002900480156112035780601f106111d857610100808354040283529160200191611203565b820191906000526020600020905b8154815290600101906020018083116111e657829003601f168201915b5050509183525050600282810180546040805160206001841615610100026000190190931694909404601f810183900483028501830190915280845293810193908301828280156112955780601f1061126a57610100808354040283529160200191611295565b820191906000526020600020905b81548152906001019060200180831161127857829003601f168201915b5050509183525050600382015460208083019190915260048301805460408051601f600260001961010060018716150201909416939093049283018590048502810185018252828152940193928301828280156113335780601f1061130857610100808354040283529160200191611333565b820191906000526020600020905b81548152906001019060200180831161131657829003601f168201915b505050918352505060058201805460408051602060026001851615610100026000190190941693909304601f81018490048402820184019092528181529382019392918301828280156113c75780601f1061139c576101008083540402835291602001916113c7565b820191906000526020600020905b8154815290600101906020018083116113aa57829003601f168201915b505050918352505060068201805460408051602060026001851615610100026000190190941693909304601f810184900484028201840190925281815293820193929183018282801561145b5780601f106114305761010080835404028352916020019161145b565b820191906000526020600020905b81548152906001019060200180831161143e57829003601f168201915b505050918352505060078201805460408051602060026001851615610100026000190190941693909304601f81018490048402820184019092528181529382019392918301828280156114ef5780601f106114c4576101008083540402835291602001916114ef565b820191906000526020600020905b8154815290600101906020018083116114d257829003601f168201915b505050918352505060088201805460408051602060026001851615610100026000190190941693909304601f81018490048402820184019092528181529382019392918301828280156115835780601f1061155857610100808354040283529160200191611583565b820191906000526020600020905b81548152906001019060200180831161156657829003601f168201915b505050918352505060098201546001600160a01b039081166020830152600a909201549091166040909101529392505050565b60008082116115d75760405162461bcd60e51b81526004016106fc90614141565b600b5460001901806115ed57600091505061046c565b60008382816115f857fe5b04905083828161160457fe5b0615611055576001019392505050565b600a546001600160a01b031681565b600a546001600160a01b0316331461164d5760405162461bcd60e51b81526004016106fc90614184565b600d8160a001516040516116619190613fbe565b9081526040519081900360200190205460ff16156116915760405162461bcd60e51b81526004016106fc9061406c565b600b546000908152600c602090815260409091208251805184936116b99284929101906137f6565b5060208281015180516116d292600185019201906137f6565b50604082015180516116ee9160028401916020909101906137f6565b5060608201516003820155608082015180516117149160048401916020909101906137f6565b5060a082015180516117309160058401916020909101906137f6565b5060c0820151805161174c9160068401916020909101906137f6565b5060e082015180516117689160078401916020909101906137f6565b5061010082015180516117859160088401916020909101906137f6565b506101208201516009820180546001600160a01b03199081166001600160a01b039384161790915561014090930151600a9092018054909316911617905560a0810151604051600191600d916117db9190613fbe565b908152604051908190036020018120805492151560ff1990931692909217909155600b5460a08301519091600e9161181291613fbe565b908152602001604051809103902081905550611835816101200151600b54612ca4565b50600b80546001019055565b60078054604080516020601f60026000196101006001881615020190951694909404938401819004810282018101909252828152606093909290918301828280156104fd5780601f106104d2576101008083540402835291602001916104fd565b600b5481565b600b546060906000199081019084018302600101818111156118dc5760405162461bcd60e51b81526004016106fc906141ce565b60001981850101828111156118ee5750815b60018282030160008167ffffffffffffffff8111801561190d57600080fd5b5060405190808252806020026020018201604052801561194757816020015b611934613882565b81526020019060019003908161192c5790505b509050835b838111611e64576000818152600c60209081526040918290208251815460026001821615610100026000190190911604601f8101849004909302810161018090810190945261016081018381529093919284928491908401828280156119f35780601f106119c8576101008083540402835291602001916119f3565b820191906000526020600020905b8154815290600101906020018083116119d657829003601f168201915b50505050508152602001600182018054600181600116156101000203166002900480601f016020809104026020016040519081016040528092919081815260200182805460018160011615610100020316600290048015611a955780601f10611a6a57610100808354040283529160200191611a95565b820191906000526020600020905b815481529060010190602001808311611a7857829003601f168201915b5050509183525050600282810180546040805160206001841615610100026000190190931694909404601f81018390048302850183019091528084529381019390830182828015611b275780601f10611afc57610100808354040283529160200191611b27565b820191906000526020600020905b815481529060010190602001808311611b0a57829003601f168201915b5050509183525050600382015460208083019190915260048301805460408051601f60026000196101006001871615020190941693909304928301859004850281018501825282815294019392830182828015611bc55780601f10611b9a57610100808354040283529160200191611bc5565b820191906000526020600020905b815481529060010190602001808311611ba857829003601f168201915b505050918352505060058201805460408051602060026001851615610100026000190190941693909304601f8101849004840282018401909252818152938201939291830182828015611c595780601f10611c2e57610100808354040283529160200191611c59565b820191906000526020600020905b815481529060010190602001808311611c3c57829003601f168201915b505050918352505060068201805460408051602060026001851615610100026000190190941693909304601f8101849004840282018401909252818152938201939291830182828015611ced5780601f10611cc257610100808354040283529160200191611ced565b820191906000526020600020905b815481529060010190602001808311611cd057829003601f168201915b505050918352505060078201805460408051602060026001851615610100026000190190941693909304601f8101849004840282018401909252818152938201939291830182828015611d815780601f10611d5657610100808354040283529160200191611d81565b820191906000526020600020905b815481529060010190602001808311611d6457829003601f168201915b505050918352505060088201805460408051602060026001851615610100026000190190941693909304601f8101849004840282018401909252818152938201939291830182828015611e155780601f10611dea57610100808354040283529160200191611e15565b820191906000526020600020905b815481529060010190602001808311611df857829003601f168201915b505050918352505060098201546001600160a01b039081166020830152600a9092015490911660409091015282518390878403908110611e5157fe5b602090810291909101015260010161194c565b50979650505050505050565b600a546001600160a01b03163314611e9a5760405162461bcd60e51b81526004016106fc90614184565b611ea3816129f5565b611ebf5760405162461bcd60e51b81526004016106fc9061410a565b6000611eca82610ef7565b600a54909150611ee59082906001600160a01b031684612b23565b5050565b6000611ef4826129f5565b611f105760405162461bcd60e51b81526004016106fc9061410a565b6106cc82610ef7565b611f21612a02565b6001600160a01b0316826001600160a01b03161415611f87576040805162461bcd60e51b815260206004820152601960248201527f4552433732313a20617070726f766520746f2063616c6c657200000000000000604482015290519081900360640190fd5b8060056000611f94612a02565b6001600160a01b03908116825260208083019390935260409182016000908120918716808252919093529120805460ff191692151592909217909155611fd8612a02565b6001600160a01b03167f17307eab39ab6107e8899845ad3d59bd9653f200f220920489ca2b5937696c318360405180821515815260200191505060405180910390a35050565b61202f612029612a02565b83612a7f565b61206a5760405162461bcd60e51b815260040180806020018281038252603181526020018061458f6031913960400191505060405180910390fd5b61207684848484612cbe565b50505050565b6000612087826129f5565b6120a35760405162461bcd60e51b81526004016106fc9061410a565b506000908152600c60205260409020600a01546001600160a01b031690565b6000600e826040516120d49190613fbe565b908152602001604051809103902054600014156121035760405162461bcd60e51b81526004016106fc90614098565b6000600e836040516121159190613fbe565b9081526040805160209281900383019020546000908152600c9092529020600a01546001600160a01b03169392505050565b6060612152826129f5565b61218d5760405162461bcd60e51b815260040180806020018281038252602f81526020018061453f602f913960400191505060405180910390fd5b60008281526008602090815260408083208054825160026001831615610100026000190190921691909104601f8101859004850282018501909352828152929091908301828280156122205780601f106121f557610100808354040283529160200191612220565b820191906000526020600020905b81548152906001019060200180831161220357829003601f168201915b505050505090506000612231610f1f565b90508051600014156122455750905061046c565b8151156123065780826040516020018083805190602001908083835b602083106122805780518252601f199092019160209182019101612261565b51815160209384036101000a600019018019909216911617905285519190930192850191508083835b602083106122c85780518252601f1990920191602091820191016122a9565b6001836020036101000a038019825116818451168082178552505050505050905001925050506040516020818303038152906040529250505061046c565b8061231085612d10565b6040516020018083805190602001908083835b602083106123425780518252601f199092019160209182019101612323565b51815160209384036101000a600019018019909216911617905285519190930192850191508083835b6020831061238a5780518252601f19909201916020918201910161236b565b6001836020036101000a0380198251168184511680821785525050505050509050019250505060405160208183030381529060405292505050919050565b6001600160a01b0381166000908152600f6020908152604080832080548251818502810185019093528083526060949383018282801561242757602002820191906000526020600020905b815481526020019060010190808311612413575b5050505050905060008151905060008167ffffffffffffffff8111801561244d57600080fd5b5060405190808252806020026020018201604052801561248757816020015b612474613882565b81526020019060019003908161246c5790505b50905060005b828110156129be57600c60008583815181106124a557fe5b60209081029190910181015182528181019290925260409081016000208151815460026001821615610100026000190190911604601f810185900490940281016101809081019093526101608101848152909391928492849184018282801561254f5780601f106125245761010080835404028352916020019161254f565b820191906000526020600020905b81548152906001019060200180831161253257829003601f168201915b50505050508152602001600182018054600181600116156101000203166002900480601f0160208091040260200160405190810160405280929190818152602001828054600181600116156101000203166002900480156125f15780601f106125c6576101008083540402835291602001916125f1565b820191906000526020600020905b8154815290600101906020018083116125d457829003601f168201915b5050509183525050600282810180546040805160206001841615610100026000190190931694909404601f810183900483028501830190915280845293810193908301828280156126835780601f1061265857610100808354040283529160200191612683565b820191906000526020600020905b81548152906001019060200180831161266657829003601f168201915b5050509183525050600382015460208083019190915260048301805460408051601f600260001961010060018716150201909416939093049283018590048502810185018252828152940193928301828280156127215780601f106126f657610100808354040283529160200191612721565b820191906000526020600020905b81548152906001019060200180831161270457829003601f168201915b505050918352505060058201805460408051602060026001851615610100026000190190941693909304601f81018490048402820184019092528181529382019392918301828280156127b55780601f1061278a576101008083540402835291602001916127b5565b820191906000526020600020905b81548152906001019060200180831161279857829003601f168201915b505050918352505060068201805460408051602060026001851615610100026000190190941693909304601f81018490048402820184019092528181529382019392918301828280156128495780601f1061281e57610100808354040283529160200191612849565b820191906000526020600020905b81548152906001019060200180831161282c57829003601f168201915b505050918352505060078201805460408051602060026001851615610100026000190190941693909304601f81018490048402820184019092528181529382019392918301828280156128dd5780601f106128b2576101008083540402835291602001916128dd565b820191906000526020600020905b8154815290600101906020018083116128c057829003601f168201915b505050918352505060088201805460408051602060026001851615610100026000190190941693909304601f81018490048402820184019092528181529382019392918301828280156129715780601f1061294657610100808354040283529160200191612971565b820191906000526020600020905b81548152906001019060200180831161295457829003601f168201915b505050918352505060098201546001600160a01b039081166020830152600a9092015490911660409091015282518390839081106129ab57fe5b602090810291909101015260010161248d565b50949350505050565b6001600160a01b03918216600090815260056020908152604080832093909416825291909152205460ff1690565b60006106cc600283612de2565b3390565b600081815260046020526040902080546001600160a01b0319166001600160a01b0384169081179091558190612a3b82610ef7565b6001600160a01b03167f8c5be1e5ebec7d5bd14f71427d1e84f3dd0314c0f7b2291e5b200ac8c7c3b92560405160405180910390a45050565b60006106cc82612dee565b6000612a8a826129f5565b612ac55760405162461bcd60e51b815260040180806020018281038252602c815260200180614411602c913960400191505060405180910390fd5b6000612ad083610ef7565b9050806001600160a01b0316846001600160a01b03161480612b0b5750836001600160a01b0316612b0084610507565b6001600160a01b0316145b80612b1b5750612b1b81856129c7565b949350505050565b826001600160a01b0316612b3682610ef7565b6001600160a01b031614612b7b5760405162461bcd60e51b81526004018080602001828103825260298152602001806145166029913960400191505060405180910390fd5b6001600160a01b038216612bc05760405162461bcd60e51b81526004018080602001828103825260248152602001806143ed6024913960400191505060405180910390fd5b612bcb838383612df2565b612bd6600082612a06565b6001600160a01b0383166000908152600160205260409020612bf89082612ed7565b506001600160a01b0382166000908152600160205260409020612c1b9082612ee3565b50612c2860028284612eef565b5080826001600160a01b0316846001600160a01b03167fddf252ad1be2c89b69c2b068fc378daa952ba7f163c4a11628f55a4df523b3ef60405160405180910390a4505050565b60006106c98383612f05565b6000808080612c8a8686612f69565b9097909650945050505050565b6000612b1b848484612fe4565b611ee58282604051806020016040528060008152506130ae565b612cc9848484612b23565b612cd584848484613100565b6120765760405162461bcd60e51b81526004018080602001828103825260328152602001806143bb6032913960400191505060405180910390fd5b606081612d3557506040805180820190915260018152600360fc1b602082015261046c565b8160005b8115612d4d57600101600a82049150612d39565b60008167ffffffffffffffff81118015612d6657600080fd5b506040519080825280601f01601f191660200182016040528015612d91576020820181803683370190505b50859350905060001982015b83156129be57600a840660300160f81b82828060019003935081518110612dc057fe5b60200101906001600160f81b031916908160001a905350600a84049350612d9d565b60006106c98383613268565b5490565b6001600160a01b03831615801590612e1257506001600160a01b03821615155b15612e2257612e2283838361063a565b6001600160a01b038316612e60576001600160a01b0382166000908152600f602090815260408220805460018101825590835291200181905561063a565b6001600160a01b038216612e7d57612e788382613280565b61063a565b612e878382613280565b6001600160a01b0382166000818152600f60209081526040808320805460018101825590845282842001859055848352600c9091529020600a0180546001600160a01b0319169091179055505050565b60006106c98383613390565b60006106c98383613456565b6000612b1b84846001600160a01b0385166134a0565b81546000908210612f475760405162461bcd60e51b81526004018080602001828103825260228152602001806143996022913960400191505060405180910390fd5b826000018281548110612f5657fe5b9060005260206000200154905092915050565b815460009081908310612fad5760405162461bcd60e51b81526004018080602001828103825260228152602001806144c86022913960400191505060405180910390fd5b6000846000018481548110612fbe57fe5b906000526020600020906002020190508060000154816001015492509250509250929050565b6000828152600184016020526040812054828161307f5760405162461bcd60e51b81526004018080602001828103825283818151815260200191508051906020019080838360005b8381101561304457818101518382015260200161302c565b50505050905090810190601f1680156130715780820380516001836020036101000a031916815260200191505b509250505060405180910390fd5b5084600001600182038154811061309257fe5b9060005260206000209060020201600101549150509392505050565b6130b88383613537565b6130c56000848484613100565b61063a5760405162461bcd60e51b81526004018080602001828103825260328152602001806143bb6032913960400191505060405180910390fd5b6000613114846001600160a01b0316613665565b61312057506001612b1b565b600061322e630a85bd0160e11b613135612a02565b88878760405160240180856001600160a01b03168152602001846001600160a01b0316815260200183815260200180602001828103825283818151815260200191508051906020019080838360005b8381101561319c578181015183820152602001613184565b50505050905090810190601f1680156131c95780820380516001836020036101000a031916815260200191505b5095505050505050604051602081830303815290604052906001600160e01b0319166020820180516001600160e01b0383818316178352505050506040518060600160405280603281526020016143bb603291396001600160a01b038816919061366b565b9050600081806020019051602081101561324757600080fd5b50516001600160e01b031916630a85bd0160e11b1492505050949350505050565b60009081526001919091016020526040902054151590565b6001600160a01b0382166000908152600f6020526040812054905b81811015612076576001600160a01b0384166000908152600f602052604090208054849190839081106132ca57fe5b90600052602060002001541415613388576001600160a01b0384166000908152600f602052604090208054600019840190811061330357fe5b9060005260206000200154600f6000866001600160a01b03166001600160a01b03168152602001908152602001600020828154811061333e57fe5b60009182526020808320909101929092556001600160a01b0386168152600f9091526040902080548061336d57fe5b60019003818190600052602060002001600090559055612076565b60010161329b565b6000818152600183016020526040812054801561344c57835460001980830191908101906000908790839081106133c357fe5b90600052602060002001549050808760000184815481106133e057fe5b60009182526020808320909101929092558281526001898101909252604090209084019055865487908061341057fe5b600190038181906000526020600020016000905590558660010160008781526020019081526020016000206000905560019450505050506106cc565b60009150506106cc565b60006134628383613268565b613498575081546001818101845560008481526020808220909301849055845484825282860190935260409020919091556106cc565b5060006106cc565b600082815260018401602052604081205480613505575050604080518082018252838152602080820184815286546001818101895560008981528481209551600290930290950191825591519082015586548684528188019092529290912055611055565b8285600001600183038154811061351857fe5b9060005260206000209060020201600101819055506000915050611055565b6001600160a01b038216613592576040805162461bcd60e51b815260206004820181905260248201527f4552433732313a206d696e7420746f20746865207a65726f2061646472657373604482015290519081900360640190fd5b61359b816129f5565b156135ed576040805162461bcd60e51b815260206004820152601c60248201527f4552433732313a20746f6b656e20616c7265616479206d696e74656400000000604482015290519081900360640190fd5b6135f960008383612df2565b6001600160a01b038216600090815260016020526040902061361b9082612ee3565b5061362860028284612eef565b5060405181906001600160a01b038416906000907fddf252ad1be2c89b69c2b068fc378daa952ba7f163c4a11628f55a4df523b3ef908290a45050565b3b151590565b6060612b1b84846000858561367f85613665565b6136d0576040805162461bcd60e51b815260206004820152601d60248201527f416464726573733a2063616c6c20746f206e6f6e2d636f6e7472616374000000604482015290519081900360640190fd5b600080866001600160a01b031685876040518082805190602001908083835b6020831061370e5780518252601f1990920191602091820191016136ef565b6001836020036101000a03801982511681845116808217855250505050505090500191505060006040518083038185875af1925050503d8060008114613770576040519150601f19603f3d011682016040523d82523d6000602084013e613775565b606091505b5091509150613785828286613790565b979650505050505050565b6060831561379f575081611055565b8251156137af5782518084602001fd5b60405162461bcd60e51b815260206004820181815284516024840152845185939192839260440191908501908083836000831561304457818101518382015260200161302c565b828054600181600116156101000203166002900490600052602060002090601f01602090048101928261382c5760008555613872565b82601f1061384557805160ff1916838001178555613872565b82800160010185558215613872579182015b82811115613872578251825591602001919060010190613857565b5061387e9291506138ee565b5090565b60405180610160016040528060608152602001606081526020016060815260200160008152602001606081526020016060815260200160608152602001606081526020016060815260200160006001600160a01b0316815260200160006001600160a01b031681525090565b5b8082111561387e57600081556001016138ef565b600067ffffffffffffffff83111561391757fe5b61392a601f8401601f1916602001614330565b905082815283838301111561393e57600080fd5b828260208301376000602084830101529392505050565b80356001600160a01b038116811461046c57600080fd5b600082601f83011261397c578081fd5b6106c983833560208501613903565b600061016080838503121561399e578182fd5b6139a781614330565b915050813567ffffffffffffffff808211156139c257600080fd5b6139ce8583860161396c565b835260208401359150808211156139e457600080fd5b6139f08583860161396c565b60208401526040840135915080821115613a0957600080fd5b613a158583860161396c565b6040840152606084013560608401526080840135915080821115613a3857600080fd5b613a448583860161396c565b608084015260a0840135915080821115613a5d57600080fd5b613a698583860161396c565b60a084015260c0840135915080821115613a8257600080fd5b613a8e8583860161396c565b60c084015260e0840135915080821115613aa757600080fd5b613ab38583860161396c565b60e084015261010091508184013581811115613ace57600080fd5b613ada8682870161396c565b83850152505050610120613aef818401613955565b90820152610140613b01838201613955565b9082015292915050565b600060208284031215613b1c578081fd5b6106c982613955565b60008060408385031215613b37578081fd5b613b4083613955565b9150613b4e60208401613955565b90509250929050565b600080600060608486031215613b6b578081fd5b613b7484613955565b9250613b8260208501613955565b9150604084013590509250925092565b60008060008060808587031215613ba7578081fd5b613bb085613955565b9350613bbe60208601613955565b925060408501359150606085013567ffffffffffffffff811115613be0578182fd5b8501601f81018713613bf0578182fd5b613bff87823560208401613903565b91505092959194509250565b60008060408385031215613c1d578182fd5b613c2683613955565b915060208301358015158114613c3a578182fd5b809150509250929050565b60008060408385031215613c57578182fd5b613c6083613955565b946020939093013593505050565b600060208284031215613c7f578081fd5b81356001600160e01b031981168114611055578182fd5b600060208284031215613ca7578081fd5b813567ffffffffffffffff811115613cbd578182fd5b612b1b8482850161396c565b600060208284031215613cda578081fd5b813567ffffffffffffffff811115613cf0578182fd5b612b1b8482850161398b565b600060208284031215613d0d578081fd5b5035919050565b60008060408385031215613d26578182fd5b82359150602083013567ffffffffffffffff811115613d43578182fd5b613d4f8582860161398b565b9150509250929050565b60008060408385031215613d6b578182fd5b50508035926020909101359150565b6001600160a01b03169052565b60008154600180821660008114613da55760018114613dbc57613dee565b60ff198316865260028304607f1686019350613dee565b600283048560005260208060002060005b83811015613de65781548a820152908501908201613dcd565b505050860193505b50505092915050565b60008151808452613e0f81602086016020860161436c565b601f01601f19169290920160200192915050565b60008154600180821660008114613e415760018114613e5f57613dee565b60028304607f16865260ff1983166020870152604086019350613dee565b60028304808752613e6f86614354565b60005b82811015613e935781546020828b0101528482019150602081019050613e72565b88016020019550505050505092915050565b60006101608251818552613ebb82860182613df7565b91505060208301518482036020860152613ed58282613df7565b91505060408301518482036040860152613eef8282613df7565b9150506060830151606085015260808301518482036080860152613f138282613df7565b91505060a083015184820360a0860152613f2d8282613df7565b91505060c083015184820360c0860152613f478282613df7565b91505060e083015184820360e0860152613f618282613df7565b9150506101008084015185830382870152613f7c8382613df7565b9250505061012080840151613f9382870182613d7a565b505061014080840151613fa882870182613d7a565b5090949350505050565b60006106c98284613d87565b60008251613fd081846020870161436c565b9190910192915050565b6001600160a01b0391909116815260200190565b6000602080830181845280855180835260408601915060408482028701019250838701855b8281101561404157603f1988860301845261402f858351613ea5565b94509285019290850190600101614013565b5092979650505050505050565b901515815260200190565b6000602082526106c96020830184613df7565b60208082526012908201527156494e20616c72656164792065786973747360701b604082015260600190565b60208082526022908201527f546f6b656e207769746820746869732056494e20646f6573206e6f74206578696040820152611cdd60f21b606082015260800190565b6020808252601690820152754e65772056494e20616c72656164792065786973747360501b604082015260600190565b60208082526017908201527f546f6b656e20494420646f6573206e6f74206578697374000000000000000000604082015260600190565b60208082526023908201527f506167652073697a65206d7573742062652067726561746572207468616e207a60408201526265726f60e81b606082015260800190565b6020808252602a908201527f4f6e6c7920636f6e7472616374206f776e65722063616e2063616c6c207468696040820152693990333ab731ba34b7b760b11b606082015260800190565b6020808252818101527f537461727420696e646578206578636565647320746f74616c20746f6b656e73604082015260600190565b6000602082526106c96020830184613ea5565b600060208252610160806020840152614233610180840185613e23565b601f198085830301604086015261424d8260018801613e23565b9150808583030160608601526142668260028801613e23565b915060038601546080860152808583030160a08601526142898260048801613e23565b9150808583030160c08601526142a28260058801613e23565b9150808583030160e08601526142bb8260068801613e23565b915080858303016101008601526142d58260078801613e23565b91508085830301610120860152506142f08160088701613e23565b90506142ff6009860154614360565b61430d610140860182613d7a565b5061431b600a860154614360565b6129be83860182613d7a565b90815260200190565b60405181810167ffffffffffffffff8111828210171561434c57fe5b604052919050565b60009081526020902090565b6001600160a01b031690565b60005b8381101561438757818101518382015260200161436f565b83811115612076575050600091015256fe456e756d657261626c655365743a20696e646578206f7574206f6620626f756e64734552433732313a207472616e7366657220746f206e6f6e20455243373231526563656976657220696d706c656d656e7465724552433732313a207472616e7366657220746f20746865207a65726f20616464726573734552433732313a206f70657261746f7220717565727920666f72206e6f6e6578697374656e7420746f6b656e4552433732313a20617070726f76652063616c6c6572206973206e6f74206f776e6572206e6f7220617070726f76656420666f7220616c6c4552433732313a2062616c616e636520717565727920666f7220746865207a65726f20616464726573734552433732313a206f776e657220717565727920666f72206e6f6e6578697374656e7420746f6b656e456e756d657261626c654d61703a20696e646578206f7574206f6620626f756e64734552433732313a20617070726f76656420717565727920666f72206e6f6e6578697374656e7420746f6b656e4552433732313a207472616e73666572206f6620746f6b656e2074686174206973206e6f74206f776e4552433732314d657461646174613a2055524920717565727920666f72206e6f6e6578697374656e7420746f6b656e4552433732313a20617070726f76616c20746f2063757272656e74206f776e65724552433732313a207472616e736665722063616c6c6572206973206e6f74206f776e6572206e6f7220617070726f766564a26469706673582212204c626521d9d49827886b391fe0d305b792a2aa3d602371bc5ee39251bd469c5f64736f6c63430007060033",
  "immutableReferences": {},
  "source": "pragma solidity >=0.4.22 <0.9.0;\r\n\r\npragma abicoder v2;\r\n\r\nimport \"../node_modules/openzeppelin-solidity/contracts/token/ERC721/ERC721.sol\";\r\n\r\ncontract Vehicle is ERC721 {\r\n    struct VehicleInfo {\r\n        string image;\r\n        string manufacturer;\r\n        string model;\r\n        uint256 year;\r\n        string color;\r\n        string VIN;\r\n        string vehicleType;\r\n        string fuelType;\r\n        string transmissionType;\r\n        address firstOwner;\r\n        address currentOwner;\r\n    }\r\n\r\n    address public owner;\r\n    uint256 public tokenIdCounter;\r\n    mapping(uint256 => VehicleInfo) private _vehicleInfoByTokenId;\r\n    mapping(string => bool) private _existingVINs;\r\n    mapping(string => uint256) private _tokenIdsByVIN;\r\n    mapping(address => uint256[]) private _tokensByOwner;\r\n\r\n    constructor(string memory _name, string memory _symbol) ERC721(_name, _symbol) {\r\n        tokenIdCounter = 1;\r\n        owner = msg.sender;\r\n    }\r\n\r\n    modifier onlyOwner() {\r\n        require(msg.sender == owner, \"Only contract owner can call this function\");\r\n        _;\r\n    }\r\n\r\n    event VehicleInfoUpdated(uint256 indexed tokenId, VehicleInfo newVehicleInfo);\r\n\r\n    function mintNFT(VehicleInfo memory _vehicleInfo) external onlyOwner {\r\n        require(!_existingVINs[_vehicleInfo.VIN], \"VIN already exists\");\r\n        _vehicleInfoByTokenId[tokenIdCounter] = _vehicleInfo;\r\n        _existingVINs[_vehicleInfo.VIN] = true;\r\n        _tokenIdsByVIN[_vehicleInfo.VIN] = tokenIdCounter;\r\n\r\n        // Skip _beforeTokenTransfer call during minting\r\n        _safeMint(_vehicleInfo.firstOwner, tokenIdCounter);\r\n\r\n        tokenIdCounter++;\r\n    }\r\n\r\n    function editVehicleInfo(uint256 _tokenId, VehicleInfo memory _newVehicleInfo) external onlyOwner {\r\n        require(_exists(_tokenId), \"Token ID does not exist\");\r\n        VehicleInfo storage currentVehicleInfo = _vehicleInfoByTokenId[_tokenId];\r\n\r\n        if (keccak256(bytes(currentVehicleInfo.VIN)) != keccak256(bytes(_newVehicleInfo.VIN))) {\r\n            require(!_existingVINs[_newVehicleInfo.VIN], \"New VIN already exists\");\r\n            _existingVINs[currentVehicleInfo.VIN] = false;\r\n            _existingVINs[_newVehicleInfo.VIN] = true;\r\n            _tokenIdsByVIN[_newVehicleInfo.VIN] = _tokenIdsByVIN[currentVehicleInfo.VIN];\r\n            delete _tokenIdsByVIN[currentVehicleInfo.VIN];\r\n        }\r\n\r\n        currentVehicleInfo.image = _newVehicleInfo.image;\r\n        currentVehicleInfo.manufacturer = _newVehicleInfo.manufacturer;\r\n        currentVehicleInfo.model = _newVehicleInfo.model;\r\n        currentVehicleInfo.year = _newVehicleInfo.year;\r\n        currentVehicleInfo.color = _newVehicleInfo.color;\r\n        currentVehicleInfo.VIN = _newVehicleInfo.VIN;\r\n        currentVehicleInfo.vehicleType = _newVehicleInfo.vehicleType;\r\n        currentVehicleInfo.fuelType = _newVehicleInfo.fuelType;\r\n        currentVehicleInfo.transmissionType = _newVehicleInfo.transmissionType;\r\n        \r\n\r\n        emit VehicleInfoUpdated(_tokenId, currentVehicleInfo);\r\n    }\r\n\r\n    function getVehicleInfoByVIN(string memory _VIN) external view returns (VehicleInfo memory) {\r\n        require(_tokenIdsByVIN[_VIN] != 0, \"Token with this VIN does not exist\");\r\n        uint256 tokenId = _tokenIdsByVIN[_VIN];\r\n        return _vehicleInfoByTokenId[tokenId];\r\n    }\r\n\r\n    function getVehicleInfoId(uint256 _tokenId) external view returns (VehicleInfo memory) {\r\n        require(_exists(_tokenId), \"Token ID does not exist\");\r\n        return _vehicleInfoByTokenId[_tokenId];\r\n    }\r\n\r\n    function getTokenOwnerById(uint256 _tokenId) external view returns (address) {\r\n        require(_exists(_tokenId), \"Token ID does not exist\");\r\n        return ownerOf(_tokenId);\r\n    }\r\n\r\n    function getTokenOwnerByVIN(string memory _VIN) external view returns (address) {\r\n        require(_tokenIdsByVIN[_VIN] != 0, \"Token with this VIN does not exist\");\r\n        uint256 tokenId = _tokenIdsByVIN[_VIN];\r\n        return ownerOf(tokenId);\r\n    }\r\n\r\n    function forceRetrieveToken(uint256 _tokenId) external onlyOwner {\r\n        require(_exists(_tokenId), \"Token ID does not exist\");\r\n        address currentOwner = ownerOf(_tokenId);\r\n        _transfer(currentOwner, owner, _tokenId);\r\n    }\r\n\r\n    function _beforeTokenTransfer(address from, address to, uint256 tokenId) internal override {\r\n        if (from != address(0) && to != address(0)) {\r\n            super._beforeTokenTransfer(from, to, tokenId);\r\n        }\r\n\r\n        if (from == address(0)) {\r\n            // Minting scenario\r\n            _tokensByOwner[to].push(tokenId);\r\n        } else if (to == address(0)) {\r\n            // Burning scenario\r\n            _removeTokenFromOwner(from, tokenId);\r\n        } else {\r\n            // Regular transfer scenario\r\n            _removeTokenFromOwner(from, tokenId);\r\n            _tokensByOwner[to].push(tokenId);\r\n\r\n            // Update current owner in VehicleInfo\r\n            _vehicleInfoByTokenId[tokenId].currentOwner = to;\r\n        }\r\n    }\r\n\r\n    function _removeTokenFromOwner(address ownerAddress, uint256 tokenId) internal {\r\n        uint256 length = _tokensByOwner[ownerAddress].length;\r\n        for (uint256 i = 0; i < length; i++) {\r\n            if (_tokensByOwner[ownerAddress][i] == tokenId) {\r\n                _tokensByOwner[ownerAddress][i] = _tokensByOwner[ownerAddress][length - 1];\r\n                _tokensByOwner[ownerAddress].pop();\r\n                break;\r\n            }\r\n        }\r\n    }\r\n\r\n    function getAllVehicleInfoByOwner(address _owner) external view returns (VehicleInfo[] memory) {\r\n        uint256[] memory tokenIds = _tokensByOwner[_owner];\r\n        uint256 count = tokenIds.length;\r\n        VehicleInfo[] memory result = new VehicleInfo[](count);\r\n\r\n        for (uint256 i = 0; i < count; i++) {\r\n            result[i] = _vehicleInfoByTokenId[tokenIds[i]];\r\n        }\r\n\r\n        return result;\r\n    }\r\n\r\n    function getAllVehicles(uint256 _pageNumber, uint256 _pageSize) external view returns (VehicleInfo[] memory) {\r\n        uint256 totalTokens = tokenIdCounter - 1;\r\n        uint256 startIndex = (_pageNumber - 1) * _pageSize + 1;\r\n\r\n        require(startIndex <= totalTokens, \"Start index exceeds total tokens\");\r\n\r\n        uint256 endIndex = startIndex + _pageSize - 1;\r\n        if (endIndex > totalTokens) {\r\n            endIndex = totalTokens;\r\n        }\r\n\r\n        uint256 resultSize = endIndex - startIndex + 1;\r\n        VehicleInfo[] memory allVehicles = new VehicleInfo[](resultSize);\r\n\r\n        for (uint256 i = startIndex; i <= endIndex; i++) {\r\n            allVehicles[i - startIndex] = _vehicleInfoByTokenId[i];\r\n        }\r\n\r\n        return allVehicles;\r\n    }\r\n    \r\n    function getAvailablePageCount(uint256 _pageSize) external view returns (uint256) {\r\n        require(_pageSize > 0, \"Page size must be greater than zero\");\r\n        uint256 totalTokens = tokenIdCounter - 1;\r\n\r\n        if (totalTokens == 0) {\r\n            return 0; // No tokens available, so no pages\r\n        }\r\n\r\n        uint256 pageCount = totalTokens / _pageSize;\r\n        if (totalTokens % _pageSize != 0) {\r\n            pageCount++; // Add one page for the remaining tokens\r\n        }\r\n\r\n        return pageCount;\r\n    }\r\n\r\n    function getCurrentOwnerByTokenId(uint256 _tokenId) external view returns (address) {\r\n        require(_exists(_tokenId), \"Token ID does not exist\");\r\n        return _vehicleInfoByTokenId[_tokenId].currentOwner;\r\n    }\r\n\r\n    function getCurrentOwnerByVIN(string memory _VIN) external view returns (address) {\r\n        require(_tokenIdsByVIN[_VIN] != 0, \"Token with this VIN does not exist\");\r\n        uint256 tokenId = _tokenIdsByVIN[_VIN];\r\n        return _vehicleInfoByTokenId[tokenId].currentOwner;\r\n    }\r\n}",
  "sourcePath": "C:\\Users\\Hp\\Desktop\\Yeni klasr\\contracts\\Vehicle.sol",
  "compiler": {
    "name": "solc",
    "version": "0.7.6+commit.7338295f.Emscripten.clang"
  },
  "schemaVersion": "3.4.16",
  "updatedAt": "2024-05-29T21:13:31.403Z",
  "devdoc": {
    "kind": "dev",
    "methods": {
      "approve(address,uint256)": {
        "details": "See {IERC721-approve}."
      },
      "balanceOf(address)": {
        "details": "See {IERC721-balanceOf}."
      },
      "baseURI()": {
        "details": "Returns the base URI set via {_setBaseURI}. This will be automatically added as a prefix in {tokenURI} to each token's URI, or to the token ID if no specific URI is set for that token ID."
      },
      "getApproved(uint256)": {
        "details": "See {IERC721-getApproved}."
      },
      "isApprovedForAll(address,address)": {
        "details": "See {IERC721-isApprovedForAll}."
      },
      "name()": {
        "details": "See {IERC721Metadata-name}."
      },
      "ownerOf(uint256)": {
        "details": "See {IERC721-ownerOf}."
      },
      "safeTransferFrom(address,address,uint256)": {
        "details": "See {IERC721-safeTransferFrom}."
      },
      "safeTransferFrom(address,address,uint256,bytes)": {
        "details": "See {IERC721-safeTransferFrom}."
      },
      "setApprovalForAll(address,bool)": {
        "details": "See {IERC721-setApprovalForAll}."
      },
      "supportsInterface(bytes4)": {
        "details": "See {IERC165-supportsInterface}. Time complexity O(1), guaranteed to always use less than 30 000 gas."
      },
      "symbol()": {
        "details": "See {IERC721Metadata-symbol}."
      },
      "tokenByIndex(uint256)": {
        "details": "See {IERC721Enumerable-tokenByIndex}."
      },
      "tokenOfOwnerByIndex(address,uint256)": {
        "details": "See {IERC721Enumerable-tokenOfOwnerByIndex}."
      },
      "tokenURI(uint256)": {
        "details": "See {IERC721Metadata-tokenURI}."
      },
      "totalSupply()": {
        "details": "See {IERC721Enumerable-totalSupply}."
      },
      "transferFrom(address,address,uint256)": {
        "details": "See {IERC721-transferFrom}."
      }
    },
    "version": 1
  },
  "userdoc": {
    "kind": "user",
    "methods": {},
    "version": 1
  }
}